:040000005FEF00F0BE
:0C000800FACFA4F0FBCFA5F091EF08F0B8
:10001800D8CF1EF0E8CF1FF0E0CF20F0FACF21F0C4
:10002800FBCF22F0E9CF23F0EACF24F0E1CF25F08F
:10003800E2CF26F0D9CF27F0DACF28F0F3CF29F096
:10004800F4CF2AF0F6CF2BF0F7CF2CF0F8CF2DF025
:10005800F5CF2EF09EA004D09E9043EC0DF09D8825
:100068009EAA03D09E9A5CEC07F09EB872EC0BF047
:100078002EC0F5FF2DC0F8FF2CC0F7FF2BC0F6FFF0
:100088002AC0F4FF29C0F3FF28C0DAFF27C0D9FF30
:1000980026C0E2FF25C0E1FF24C0EAFF23C0E9FF34
:1000A80022C0FBFF21C0FAFF20C0E0FF1FC0E8FF0D
:1000B8001EC0D8FF10004CEF0BF00101C66F000EF8
:1000C80002010201016F0101C6510101C66F000E54
:1000D80002010201026F0101C6510101C66F000E43
:1000E80002010201036F0101C65102010201016907
:1000F800020102010269020102010369820ED36E44
:100108009B8C0201020E01010101A36F0201150E71
:1001180001010101A26F5BEC0DF00201020E010169
:100128000101A36F0201250E01010101A26F84ECF8
:100138000AF00201020E01010101A36F0201130E70
:1001480001010101A26FEBEC0DF04DEC0AF0000E7D
:10015800936E000E8A6ED30E72EC0DF00101C66F1D
:10016800840E01010101A26F0101C6510101C76F8F
:100178000B0E01010101A36F0101C751D30E1BEC46
:1001880009F0870EAEEC0DF0F50EA0EC0CF09F9088
:100198009F9A9F989F869F8C9E0E87EC0DF09D8658
:1001A8009D8A000E01010101A36F9B0E0101A26F40
:1001B8007C0E03EC08F0B896AB8EAB88000E456E4B
:1001C800000E446E29EC0EF05DEC09F00201020EFF
:1001D80001010101BB6F0201230E01010101BA6F88
:1001E8000201020E01010101BD6F0201040E0101AD
:1001F8000101BC6F0A0E20EC0CF002010201246F11
:100208000201020124BF4DD03CD00201020E0101BF
:100218000101A36F02010F0E01010101A26F02018A
:10022800010123C2A4F101010101A56B0201020130
:10023800245101010101A66F0101A76B0101A6BFAD
:10024800A7070201020E01010101A96F0201040EB4
:1002580001010101A86FE2EC0DF023D00201020EAA
:1002680001010101A36F0201040E01010101A26F46
:1002780002010201245144EC03F013D004C200F23D
:1002880010D00201020123510A0AD8B4BED72D0AA0
:10029800D8B407D00F0AD8B4E1D7010AD8B4EED73A
:1002A800030A0201020E01010101BB6F0201230EC4
:1002B80001010101BA6F0201020E01010101BD6FC6
:1002C8000201040E01010101BC6F0A0EFFEC0BF0E4
:1002D80002010201246F0201020124BF75D7A4D0D4
:1002E8000201020E01010101BD6F0201130E01019D
:1002F8000101BC6F0201010123C2BEF1010101012C
:10030800BF6B02010201245101010101C06F01010B
:10031800C16B0101C0BFC1070201020E0101010149
:10032800C36F0201040E01010101C26F14EC0AF04F
:100338004BD70201020E01010101BD6F0201110E2E
:1003480001010101BC6F0201010123C2BEF10101DB
:100358000101BF6B02010201245101010101C06FBB
:100368000101C16B0101C0BFC1070201020E0101F9
:100378000101C36F0201040E01010101C26FD9EC32
:1003880009F022D70201020E01010101BD6F02012D
:10039800110E01010101BC6F0201010123C2BEF16E
:1003A80001010101BF6B0201020124510101010198
:1003B800C06F0101C16B0101C0BFC1070201020E7C
:1003C80001010101C36F0201040E01010101C26FA5
:1003D800D9EC09F0F9D60201020E01010101BD6F45
:1003E8000201110E01010101BC6F0201010123C2CA
:1003F800BEF101010101BF6B02010201245101019B
:100408000101C06F0101C16B0101C0BFC107020139
:10041800020E01010101C36F0201040E0101010175
:10042800C26FD9EC09F0D0D60201020123510B0AA0
:10043800D8B456D7150AD8B47CD73E0AD8B4A2D7B0
:10044800010AD8B4C8D7C0D604D1000120EE1AF0EA
:100458000001CC51D9260001CD51DA22DF5000012C
:10046800806F00018051010D0F0EF326000EF4225B
:10047800F35000010001CC25D96EF45000010001B1
:10048800CD21DA6EDF50C96E000120EE0CF00001BC
:10049800CC51D9260001CD51DA22060EDF6E1200AA
:1004A800C5BC39D0C58A000120EE1CF00001CC5132
:1004B800D9260001CD51DA22DECF80F0DDCF81F0E0
:1004C8000F0E00018027000E8123000180510001DA
:1004D8000001CC25D96E0001815100010001CD2118
:1004E800DA6EDF50C96E000120EE1CF00001CC511D
:1004F800D9260001CD51DA22DE2A000EDD220001C4
:1005080020EE0CF00001CC51D9260001CD51DA22A1
:10051800070EDF6E1200000120EE0CF00001CC5136
:10052800D9260001CD51DA22010EDF6E1200C5BCBA
:1005380078D0C58A000120EE1CF00001CC51D926E4
:100548000001CD51DA22DECF80F0DDCF81F0FF0E41
:100558000001826FFF0E836F000120EE19F0000189
:10056800CC51D9260001CD51DA22DF500001846F29
:10057800856B00018251000184270001835100012D
:100588008523000181510001851904E10001805192
:1005980000018419D8A40DD0000120EE0CF0000150
:1005A800CC51D9260001CD51DA220A0EDF6EC5845E
:1005B8001200000120EE1CF00001CC51D9260001E8
:1005C800CD51DA22DECF80F0DDCF81F00F0E0001B1
:1005D8008027000E81230001805100010001CC25F5
:1005E800D96E0001815100010001CD21DA6EDF5082
:1005F800C96E000120EE1CF00001CC51D926000183
:10060800CD51DA22DE2A000EDD22000120EE0CF0A8
:100618000001CC51D9260001CD51DA22070EDF6E38
:100628001200000120EE0CF00001CC51D926000187
:10063800CD51DA22090EDF6E1200000120EE0CF017
:100648000001CC51D9260001CD51DA22030EDF6E0C
:100658001200000120EE0CF00001CC51D926000157
:10066800CD51DA22DF50050AD8B4EFD6030AD8B440
:1006780017D7010AD8B45BD70D0AD8A41200DDD762
:10068800E8CFAAF1000120EE0CF00001CC51D926E8
:100698000001CD51DA22DF50030AD8A4120000016C
:1006A80020EE0CF00001CC51D9260001CD51DA2200
:1006B800030EDF621200000120EE1CF00001CC5195
:1006C800D9260001CD51DA22010EDE6E000EDD6E54
:1006D800000120EE1BF00001CC51D9260001CD51BC
:1006E800DA22000110EE0FF00001CC51E1260001E2
:1006F800CD51E222DFCFE7FF000120EE19F0000123
:10070800CC51D9260001CD51DA2201010101AA29D3
:10071800DF6E000E01010101AC6F010E0101AB6F2C
:100728003DD0FF0E0101A46FFF0EA56F0101ABC103
:10073800A6F10101ACC1A7F10101A4510101A6274D
:100748000101A5510101A7230101A65101010101E0
:10075800A225D96E0101A75101010101A321DA6E79
:100768000F0E01010101AB250101A86F000E010167
:100778000101AC210101A96F0101A851000100018B
:10078800CC25E16E0101A95100010001CD21E26EE5
:10079800DFCFE7FF01010101AB4BAC2B01010101E8
:1007A800AA510101A46FA56B010E0101A427000E37
:1007B800A52301010101AC51800A0101A66FA451D2
:1007C80001010101AB5D0101A551800A0101A65992
:1007D800D8A0A7D7000120EE1EF00001CC51D926E1
:1007E8000001CD51DA22010EDF6E000120EE1FF06C
:1007F8000001CC51D9260001CD51DA22000EDF6E5E
:10080800000120EE0CF00001CC51D9260001CD5199
:10081800DA22050EDF6EC580C5A01200FDD7000ED6
:10082800436E000E426E21EC0EF000010001000143
:10083800000181358133803300010001000100018E
:10084800813581338033000180C042F0000181C0CE
:1008580043F043504B1802E142504A18D8B41200F2
:1008680045504410D8A446D0350E4624D96E000E03
:100878004720DA6E42C0DFFF464A472A4750800ABF
:10088800800F060ED8B4465CD8A07ED0000E0001BA
:100898000001836F000E0001826F00010001835187
:1008A800800A800F050ED8B4825DD8B01BD0350EF3
:1008B800000100018225D96E000E0001000183218C
:1008C800DA6E520E000100018225E16E000E000171
:1008D80000018321E26EDFCFE7FF00010001824BB8
:1008E800832BDBD7000E476E000E466E000E456E5A
:1008F800010E49D044044510D8A446D03A0E4624E7
:10090800D96E000E4720DA6E42C0DFFF464A472AFA
:100918004750800A800F060ED8B4465CD8A034D061
:10092800000E00010001856F000E0001846F0001B8
:1009380000018551800A800F050ED8B4845DD8B0B7
:100948001BD0350E000100018425D96E000E000170
:1009580000018521DA6E520E000100018425E16E46
:10096800000E000100018521E26EDFCFE7FF0001E4
:100978000001844B852BDBD7000E476E000E466EB8
:10098800000E456E000E446E42C04AF043C04BF064
:100998001200010120EE35F00101AC51D926010108
:1009A800AD51DA22DF5001010101B56F01010101EA
:1009B800B5510D0DF35001010101AC2501010101F3
:1009C800B86FF45001010101AD210101B96F010EA9
:1009D800B8C1D9FFB9C1DAFFDF6274D0010120EED6
:1009E80001F00101B851D9260101B951DA22DF50CD
:1009F80001010101AE5DD8B002D0FD0E1200010167
:100A080020EE01F00101B851D9260101B951DA22CD
:100A1800DF500101B36F0101B35101010101B66F4C
:100A28000101B76B01010101B2C1A3F1010101018B
:100A3800B1C1A2F1030E01010101B8250101B36F93
:100A4800000E01010101B9210101B46FB3C1A4F184
:100A5800B4C1A5F1B6C1A6F1B7C1A7F1EEEC0AF091
:100A6800010120EE35F00101AC51D9260101AD514B
:100A7800DA22010110EE35F00101AC51E126010145
:100A8800AD51E222E7500101B36F0101B329030B15
:100A9800DF6E010120EE02F00101B851D9260101F3
:100AA800B951DA22AFC1E1FFB0C1E2FFDFCFE7FF02
:100AB800B8C1D9FFB9C1DAFF000EDF6E010101012B
:100AC800B6511200FC0E1200000120EE35F00001B4
:100AD8008A51D92600018B51DA22DF50000100012A
:100AE800936F0001000193510D0DF35000010001B7
:100AF8008A2500010001966FF450000100018B2146
:100B08000001976F010E96C0D9FF97C0DAFFDF6228
:100B180074D0000120EE01F000019651D9260001A1
:100B28009751DA22DF50000100018C5DD8B002D065
:100B3800FD0E1200000120EE01F000019651D926A9
:100B480000019751DA22DF500001916F00019151A5
:100B580000010001946F0001956B0001000190C035
:100B680081F0000100018FC080F0030E0001000138
:100B780096250001916F000E0001000197210001E8
:100B8800926F91C082F092C083F094C084F095C0B7
:100B980085F01DEC0BF0000120EE35F000018A51C4
:100BA800D92600018B51DA22000110EE35F0000140
:100BB8008A51E12600018B51E222E7500001916F32
:100BC80000019129030BDF6E000120EE02F0000105
:100BD8009651D92600019751DA228DC0E1FF8EC0C7
:100BE800E2FFDFCFE7FF96C0D9FF97C0DAFF000E1C
:100BF800DF6E0001000194511200FC0E1200010189
:100C08000101AEC1B3F101010101B46B010120EE94
:100C180034F00101AC51D9260101AD51DA22DF507F
:100C280001010101B56F01010101B5510D0DF3502D
:100C380001010101AC2501010101B66FF450010168
:100C48000101AD210101B76FB6C1D9FFB7C1DAFF04
:100C5800DF50D8B402D0FF0E1200010120EE01F0DF
:100C68000101B651D9260101B751DA220101AEC1FD
:100C7800DFFF010120EE02F00101B651D926010182
:100C8800B751DA220101AFC1DFFF030E01010101F3
:100C9800B62501010101A26F000E01010101B72172
:100CA8000101A36F01010101B1C1A5F10101010118
:100CB800B0C1A4F1B3C1A6F1B4C1A7F1EEEC0AF03A
:100CC800010120EE34F00101AC51D9260101AD51EA
:100CD800DA22010110EE34F00101AC51E1260101E4
:100CE800AD51E222E7500101B26F0101B229030BB5
:100CF800DF6EB6C1D9FFB7C1DAFF010EDF6E010E94
:100D08001200000100018CC091F000010001926BFB
:100D1800000120EE34F000018A51D92600018B51E0
:100D2800DA22DF5000010001936F000100019351A6
:100D38000D0DF350000100018A2500010001946F98
:100D4800F450000100018B210001956F94C0D9FF78
:100D580095C0DAFFDF50D8B402D0FF0E12000001B0
:100D680020EE01F000019451D92600019551DA22B4
:100D780000018CC0DFFF000120EE02F00001945159
:100D8800D92600019551DA2200018DC0DFFF030E3C
:100D980000010001942500010001806F000E000190
:100DA800000195210001816F000100018FC083F0CF
:100DB800000100018EC082F091C084F092C085F0DD
:100DC8001DEC0BF0000120EE34F000018A51D92609
:100DD80000018B51DA22000110EE34F000018A5133
:100DE800E12600018B51E222E7500001906F0001DB
:100DF8009029030BDF6E94C0D9FF95C0DAFF010E6E
:100E0800DF6E010E12000DC012F0136A20EE34F0EE
:100E18000B50D9260C50DA22DF50146E14500D0DE9
:100E2800F3500B24156EF4500C20166E15C0D9FF24
:100E380016C0DAFFDF50D8B402D0FF0E120020EE41
:100E480001F01550D9261650DA220DC0DFFF20EE2A
:100E580002F01550D9261650DA220EC0DFFF030E15
:100E68001524016E000E1620026E10C004F00FC08B
:100E780003F012C005F013C006F062EC0CF020EE8F
:100E880034F00B50D9260C50DA2210EE34F00B5007
:100E9800E1260C50E222E750116E1128030BDF6E99
:100EA80015C0D9FF16C0DAFF010EDF6E010E120061
:100EB8009EAA42D020EE0DF05C50D9265D50DA2271
:100EC800DF501B6E1B50010D060EF326000EF42298
:100ED800F3505C24D96EF4505D20DA6EBEEC0DF050
:100EE800DF6E20EE0DF05C50D9265D50DA22DF2A45
:100EF80020EE0DF05C50D9265D50DA22060EDF6236
:100F08001BD01B6E200E176E1B50060E5C24186E2D
:100F1800000E5D20196E20EE0DF05C50D9265D5054
:100F2800DA22DF509BEC0DF020EE0DF05C50D92654
:100F38005D50DA22000EDF6E4DA61200AB98AB882A
:100F48001B6E1E0E176E1B50000E196E000E186ECB
:100F5800000E9BEC0DF01200000E01010101AA6FBA
:100F6800000E0101A96F2DD001010101A951010154
:100F78000101A425D96E01010101AA510101010154
:100F8800A521DA6E10EE0CF05C50E1265D50E222ED
:100F9800E7500101A66F0101A651010DF3505C2431
:100FA800E16EF4505D20E26EDFCFE7FF20EE0CF03B
:100FB8005C50D9265D50DA22DF2A01010101A94BD4
:100FC800AA2B010E01010101A2250101A66F000E45
:100FD80001010101A3210101A76F01010101AA512A
:100FE800800A0101A86FA65101010101A95D010153
:100FF800A751800A0101A859D8B01200B5D7E8CF87
:10100800A7F1000EAC6E000EAB6E01010101A7B195
:10101800AC8801010101A7A302D0AC8CAB8C010103
:101028000101A7B5AC8E01010101A7A702D0AB88C9
:1010380001D0AB8A01010101A7B9AC849E980101D6
:101048000101A7BBAB8601010101A7AD02D09D8AB2
:1010580001D09D9A9E9A01010101A7AF02D09D88F7
:1010680001D09D98A2C1AFFF0101A3C1A4F1A4C101
:10107800A5F10101A66B0101A551B06EAC8AAB8E3A
:10108800949C948EACA81200ACBE1200948C1200F2
:1010980001010101A551A411D8B43AD00101A66FEC
:1010A800010E01010101A76F0101A65109D001013B
:1010B80001010101D890A437A53701010101A72B2F
:1010C80001010101A5AFF3D701010101A4510101FB
:1010D8000101A25D01010101A55101010101A3590D
:1010E800D8A00CD001010101A45101010101A25FA6
:1010F80001010101A55101010101A35B01010101E8
:101108000101D890A533A43301010101A72FDCD731
:10111800A2C1A2F1A3C1A3F11200E9CFA6F0EACFC0
:10112800A7F0E1CFA8F0E2CFA9F0D9CFAAF0DACFA3
:10113800ABF0F3CFACF0F4CFADF0F6CFAEF0F7CF25
:10114800AFF0F8CFB0F0F5CFB1F09E509E9C13EC05
:1011580004F09EA603D09E9682EC0CF0F2A403D075
:10116800F294D6EC08F0B9EC0AF0B1C0F5FFB0C0C3
:10117800F8FFAFC0F7FFAEC0F6FFADC0F4FFACC0DC
:10118800F3FFABC0DAFFAAC0D9FFA9C0E2FFA8C02D
:10119800E1FFA7C0EAFFA6C0E9FFA5C0FBFFA4C006
:1011A800FAFF1100000E00010001816F000E00011E
:1011B800806F0FEC0EF00001000E00010001996F26
:1011C8000001A00E00010001986F0001000E00014F
:1011D80000019B6F0001A20E000100019A6F020E30
:1011E80041EC0CF0000100019E6F00019F6B0001B3
:1011F8009EBF9F07000100019E51020A9F11D8A4BB
:10120800120000019D6F0A0E00010001966F000197
:101218009D510001000E00010001986F0001A20E0F
:1012280000010001976F020E0DEC0DF01200E8CFDF
:10123800A6F1000EC26E000EC06E01010101D89029
:10124800A2313C0BC26EA2C1A4F10101A43BF00E75
:10125800A417300E0101A41701010101A3510F0BBE
:101268000101A411C16EA6C1A4F10101D890A4374F
:101278000101D890A437380E0101A417A6C1A5F121
:101288000101A53B0F0EA517070E0101A5170101C6
:101298000101A651800B0101A5110101A411C06E25
:1012A80001010101A2AF03D09E9C9D8CF28CC280EB
:1012B8001200DDEC0BF001010101A7510101A6119B
:1012C800D8B412000101A86F010E4C6E0101A8519B
:1012D8000101010E01010101A36F0101360E010197
:1012E8000101A26FF2EC0CF00009D8B407D001019B
:1012F800A86F000E4C6E0101A85112000101010EE9
:1013080001010101A36F01016C0E01010101A26F2E
:10131800F2EC0CF00009D8B407D00101A86F000E58
:101328004C6E0101A85112000A0ECDEC0DF0D0D779
:10133800010120EE34F00101A251D9260101A35187
:10134800DA22000EDF6E010120EE35F00101A25114
:10135800D9260101A351DA22000EDF6E0101A46F24
:10136800000E01010101A56F0101A451030E010145
:101378000101A56501D0120001010101A5510D0D62
:10138800F35001010101A225D96EF45001010101B8
:10139800A321DA6E000EDF6E01010101A52B030EF9
:1013A80001010101A565E8D7120001010101BE5143
:1013B8001E0ABF11D8B4120001010101BE51200A52
:1013C800BF11D8A410D0C0C1A2F1C1C1A3F10101BD
:1013D8000101C3C1A5F101010101C2C1A4F1B0EC31
:1013E80007F09D88120001010101BE51210ABF11B9
:1013F800D8A412000101C46F280E01010101B86FC1
:101408000101C45101010101C3C1BAF10101010186
:10141800C2C1B9F101010101C051BCEC0CF01200CC
:10142800BCC1D9FFBDC1DAFFDE2A000EDD22BCC176
:10143800D9FFBDC1DAFF0101DECFA2F10101DDCF85
:10144800A3F1000E01010101A56F0A0E0101A46FAD
:101458004CEC08F001010101A251090A0101A31194
:10146800D8A412000101C46F140E01010101B86F64
:101478000101C45101010101BDC1BAF1010101011C
:10148800BCC1B9F1020ED7EC0CF001010101C56F26
:1014980012000101A66F000E4C6E0101A651010158
:1014A800010E01010101A36F01016C0E010101018F
:1014B800A26F9CEC09F00101010E01010101A36F6B
:1014C8000101360E01010101A26F9CEC09F0010136
:1014D800010E01010101A36F0101000E01010101CB
:1014E800A26F9CEC09F00201020E01010101A36F39
:1014F8000201450E01010101A26F9CEC09F01200E6
:1015080001010001A3C1CDF001010001A2C1CCF08D
:10151800000120EE0AF00001CC51D9260001CD517E
:10152800DA22000EDF6E000120EE0BF00001CC5134
:10153800D9260001CD51DA22000EDF6E000120EE1F
:101548000CF00001CC51D9260001CD51DA22030E4E
:10155800DF6E000120EE0EF00001CC51D92600010B
:10156800CD51DA22000EDF6E12004C6601D0120057
:10157800BAEC0BF000010001835100018211D8A4DC
:10158800120018EC0EF000010001815100018011D9
:10159800D8B412000101010E00010001816F0101A0
:1015A800360E00010001806F28EC0DF00009D8A468
:1015B80012000101010E00010001816F01016C0E92
:1015C80000010001806F28EC0DF00009D8B42DEC63
:1015D8000EF0120001010101A5C1ABF101010101E9
:1015E800A4C1AAF101010101A3C1A9F101010101ED
:1015F800A2C1A8F112D0AAC1D9FFABC1DAFFA8C114
:10160800E1FFA9C1E2FFDFCFE7FF01010101AA4B1A
:10161800AB2B01010101A84BA92B01010101A60770
:10162800D8A0A7070101A629D8B4A729D8B41200C1
:10163800E2D70001000183C089F00001000182C0E7
:1016480088F00001000181C087F00001000180C01E
:1016580086F012D088C0D9FF89C0DAFF86C0E1FFC2
:1016680087C0E2FFDFCFE7FF00010001884B892B2D
:1016780000010001864B872B000100018407D8A0D8
:10168800850700018429D8B48529D8B41200E2D787
:1016980002EE45F0360EEE6AE806FDE101EE00F0D6
:1016A800A20EEE6AE806FDE100EEB2F01A0EEE6A4E
:1016B800E806FDE100EE2FF02D0EEE6AE806FDE1EA
:1016C800620EF66E1C0EF76E000EF86E0900F5CF6E
:1016D8005EF0000EF86E000161EF00F020EE0CF0F5
:1016E8005C50D9265D50DA22060EDF6206D09D983E
:1016F800026E000E4E6E0250120020EE0CF05C508E
:10170800D9265D50DA22DFCF02F0010EDF26025023
:10171800010DF3505C24D96EF4505D20DA6EDF5071
:10172800D8EC0DF01200F2AC08D0000E0101010156
:10173800A56F000E0101A46F1200F4EC0DF0010179
:101748000101A3510101A211D8B408D0000E010172
:101758000101A56F000E0101A46F1200000E010126
:101768000101A56F010E0101A46F1200F2AC08D0AF
:10177800000E00010001836F000E0001826F12004D
:1017880018EC0EF000010001815100018011D8B45D
:1017980008D0000E00010001836F000E0001826F67
:1017A8001200000E00010001836F010E0001826F1C
:1017B800120097EC0BF001010101A5510101A411E0
:1017C800D8A411D0F4EC0DF001010101A3510101DD
:1017D800A211D8A408D0000E01010101A76F010EC3
:1017E8000101A66F1200000E01010101A76F000E92
:1017F8000101A66F1200E8CFBEF10101010E01013F
:101808000101AD6F01016C0E01010101AC6FBEC198
:10181800AEF101010101BBC1B0F101010101BAC181
:10182800AFF101010101BDC1B2F101010101BCC16A
:10183800B1F1CDEC04F01200E8CFBEF10101010EC8
:1018480001010101AD6F0101360E01010101AC6F0B
:10185800BEC1AEF101010101BBC1B0F1010101013D
:10186800BAC1AFF101010101BDC1B2F1010101012C
:10187800BCC1B1F1CDEC04F01200E8CF9CF002013C
:10188800020E000100018B6F0201450E00010001EC
:101898008A6F9CC08CF00001000199C08EF0000195
:1018A800000198C08DF0000100019BC090F000017C
:1018B80000019AC08FF068EC05F0120004C00AF02D
:1018C80003C009F002C008F001C007F00ED009C03B
:1018D800D9FF0AC0DAFF07C0E1FF08C0E2FFDFCF87
:1018E800E7FF094A0A2A074A082A0506D8A0060671
:1018F8000528D8B40628D8B41200E9D7000120EE8C
:101908001FF00001CC51D9260001CD51DA22010E79
:10191800DF6203D030EC0EF01200000120EE1EF062
:101928000001CC51D9260001CD51DA22010EDF6227
:10193800120028EC02F01200E8CFA2F10101010127
:10194800A2517E0BCD6E01010101A2AD02D0CD8E58
:1019580001D0CD9E000ECF6E000ECE6E9E9001017E
:101968000101A2AF02D09D8001D09D90CD801200D0
:10197800E8CFBBF10101010E01010101AD6F0101C9
:10198800360E01010101AC6FBBC1AEF1B8C1AFF1B8
:1019980001010101BAC1B1F101010101B9C1B0F1FF
:1019A80003EC06F01200E8CFBBF10201020E0101C0
:1019B8000101AD6F0201450E01010101AC6FBBC110
:1019C800AEF1B8C1AFF101010101BAC1B1F1010134
:1019D8000101B9C1B0F103EC06F01200010120EEDB
:1019E80035F00101A251D9260101A351DA22DF50B5
:1019F8000101A46F0101A4510D0DF3500101010172
:101A0800A225D96EF45001010101A321DA6EDF503D
:101A18001200E8CF99F00101010E000100018B6F5F
:101A28000101360E000100018A6F99C08CF096C042
:101A38008DF00001000198C08FF00001000197C0EF
:101A48008EF085EC06F01200000120EE35F0000162
:101A58008051D92600018151DA22DF500001826FBE
:101A6800000182510D0DF350000100018025D96E4F
:101A7800F450000100018121DA6EDF50120006ECFB
:101A88000EF001C01CF002C01DF01B6E0B0E176E8D
:101A98001B50000E196E000E186E000E9BEC0DF018
:101AA800C50E026E440E016EFDEC0DF01200010130
:101AB800A3C15DF00101A2C15CF020EE0CF05C5006
:101AC800D9265D50DA22000EDF6E20EE0DF05C5054
:101AD800D9265D50DA22000EDF6E1200E8CFA2F19F
:101AE80001010101A2517F0BD56E000ED76E000EC9
:101AF800D66EF29401010101A2AF02D0F28A01D0A0
:101B0800F29AD58E1200E8CFA2F194869488A2C1E9
:101B1800C8FF000EC76E000EC66E000EC56E0E0E14
:101B2800C612C78E94869488C580C68A1200E8CFEC
:101B38001AF00101010E0C6E01016C0E0B6E1AC039
:101B48000DF017C00EF019C010F018C00FF007EC18
:101B580007F01200E8CFA3F1C2CFA2F1C30E010132
:101B6800A21701010101D890A3313C0B0101A21178
:101B7800C26E1200F20E4D16ABAC03D04D90ABB056
:101B88004D80ABB44D84ABB24D86AECF01F0015061
:101B98001200E8CFA2F1FA0E00F0E82EFDD70101FD
:101BA8000101A22FF8D71200E8CF01F0ACAC03D0A6
:101BB800AC904DB2AC8001C0ADFF12000101010133
:101BC800A9C1ABF101010101A8C1AAF11200A2C18A
:101BD800D9FFA3C1DAFF000EDE6E000EDD6E120023
:101BE800000EF2AE010E01010101A26F0101A36B0B
:101BF800120001C003F002C004F004C0CFFF03C00C
:101C0800CEFF1200CECF03F0CFCF04F003C001F017
:101C180004C002F0120080C082F081C083F083C04B
:101C2800D7FF82C0D6FF1200000EF2AE010E0001EF
:101C38000001806F0001816B1200C4500001000197
:101C4800816FC3500001806F1200D08EF28EF28C2B
:0C1C58001200D38E030012001200A8003E
:067FF80080F4C5FFFFF15B
:00000001FF
