:0400000060EF00F0BD
:0C000800FACFDAF0FBCFDBF021EF0BF0B9
:10001800D8CF23F0E8CF24F0E0CF25F0FACF26F0B0
:10002800FBCF27F0E9CF28F0EACF29F0E1CF2AF07B
:10003800E2CF2BF0D9CF2CF0DACF2DF0F3CF2EF082
:10004800F4CF2FF0F6CF30F0F7CF31F0F8CF32F011
:10005800F5CF33F09EA003D09E9094EC0FF09EAAAB
:1000680003D09E9A62EC00F09EB89DA802D0F9ECED
:100078000CF033C0F5FF32C0F8FF31C0F7FF30C0D5
:10008800F6FF2FC0F4FF2EC0F3FF2DC0DAFF2CC0FF
:10009800D9FF2BC0E2FF2AC0E1FF29C0EAFF28C030
:1000A800E9FF27C0FBFF26C0FAFF25C0E0FF24C0F8
:1000B800E8FF23C0D8FF1000D4EF0EF09EAAB2D1FB
:1000C800E6EC0FF0226E606607D02250AA0AD8A488
:1000D80003D01B6EAA0E07D0606691D12204D8A463
:1000E8008ED11B6E010E5F6E1B5089D160669AD14E
:1000F80020EE0AF06550D9266650DA2222C0DFFFCA
:1001080020EE15F06550D9266650DA22DF2A1B6EDC
:10011800010E606E1B501B6E010E626E1B501B6E33
:10012800000E45D060667ED120EE0AF06550D926D3
:100138006650DA2222C0DFFF20EE15F06550D9267E
:100148006650DA22DF2A1B6E010E606E1B501B6E92
:10015800010E616E1B501B6E030E29D06050D8B47F
:1001680028D06250D8B425D020EE15F06550D92695
:100178006650DA22DF501B6E1B50010D0A0EF32663
:10018800000EF422F3506524D96EF4506620DA6E1E
:1001980022C0DFFF20EE15F06550D9266650DA221E
:1001A800DF2A1B6E010E5E6E1B501B6E050E5F6E06
:1001B8004CD01B6EAA0E5F6E1B501B6E000E606E3D
:1001C80044D06050D8B423D06150D8B420D020EEA9
:1001D80015F06550D9266650DA22DF501B6E1B5089
:1001E800010D0A0EF326000EF422F3506524D96E91
:1001F800F4506620DA6E22C0DFFF20EE15F065505D
:10020800D9266650DA22DF2A1B6E040ED0D71B6E61
:10021800010ED1D720EE0BF06550D9266650DA22B0
:10022800DF501B6E1C6A010E1B26000E1C2220EEDE
:1002380015F06550D9266650DA22DF501D6E1D5024
:100248001B181C10D8A4C3D78FD71B50EBD05E50F7
:10025800D8B4BDD020EE15F06550D9266650DA2204
:10026800DF501B6E1B50010D0A0EF326000EF42200
:10027800F3506524D96EF4506620DA6E22C0DFFF91
:100288001B6E000E1F6E1B5020EE0BF06550D9261A
:100298006650DA22DF501E6E1E6611D06250D8B446
:1002A8000ED020EE0CF06550D9266650DA22AA0E40
:1002B800DF6205D01B6EAA0E1F6E1B502CD0000EDD
:1002C800216E000E206E10D00A0E20241B6E000E28
:1002D80021201C6E1B506524D96E1C506620DA6ED6
:1002E800DF501F1A204A212A20EE0BF06550D9262C
:1002F8006650DA22DF501B6E1C6A020E1B26000EA7
:100308001C222150800A1D6E1B50205C1C50800A44
:100318001D58D8A0D9D720EE15F06550D9266650BB
:10032800DA22DF501B6E1B50010D0A0EF326000E59
:10033800F422F3506524D96EF4506620DA6EDF504B
:100348001F18D8B409D020EE15F06550D92666508C
:10035800DA22000EDF6E3BD06250D8B41BD020EEFC
:1003680015F06550D9266650DA22DF2A1B6E280E52
:10037800176E1B500A0E6524186E000E6620196E43
:1003880020EE15F06550D9266650DA22DF50C1EC10
:100398000FF01DD06150D8B41AD020EE15F065507A
:1003A800D9266650DA22DF2A1B6E280E176E1B50DC
:1003B8000A0E6524186E000E6620196E20EE15F0E0
:1003C8006550D9266650DA22DF50C1EC0FF01B6E5B
:1003D800000E606E1B501B6E000E626E1B501B6E73
:1003E800000E616E1B5020EE15F06550D926665040
:1003F800DA22000EDF6E1B6E000E5E6E26D75F508F
:10040800000AD8B4ABD6010AD8B48CD6020AD8B43C
:10041800D8D6070AD8B4FED6010AD8B418D7AF0A76
:10042800D8B464D659A61200AB98AB881B6E1E0EC2
:10043800176E1B50000E196E000E186E000ED4ECCD
:100448000FF01200820ED36E9B8C0101010E010188
:100458000101836F0101BD0E01010101826F97EC5B
:100468000EF00101010E01010101836F0101D40E9B
:1004780001010101826F62EC0BF00101010E010123
:100488000101836F0101B90E01010101826F13ECB3
:1004980010F057EC0CF0000E936E000E8A6ED30E1F
:1004A800ACEC0FF0F50EF1EC0EF09F909F9A9F9830
:1004B8009F860101A66F9E0E01010101B46F010123
:1004C800A65101010101B451F3EC0DF09D86000E17
:1004D80001010101836F9B0E0101826F7C0E4EECBE
:1004E8000AF0B896AB8EAB88000E01010101156FBA
:1004F800000E0101146F49EC10F0A2EC0BF00101A1
:10050800010E010101019B6F0101BC0E01010101F6
:100518009A6F0101010E010101019D6F0101A70EF2
:10052800010101019C6F0A0E35EC0EF00101010179
:10053800BB6F01010101BBBF88D07BD00101010E57
:1005480001010101836F0101B20E01010101826FF6
:1005580001010101BCC184F101010101856B0101A7
:100568000101BB5101010101866F0101876B010186
:1005780086BF87070101010E01010101896F010191
:10058800A70E01010101886F0AEC10F05ED001018D
:10059800010E010101019D6F0101B70E0101010169
:1005A8009C6F01010101BCC19EF1010101019F6B1A
:1005B80001010101BB5101010101A06F0101A16B02
:1005C8000101A0BFA1070101010E01010101A36FF3
:1005D8000101A70E01010101A26F3AEC09F035D023
:1005E8000101010E010101019D6F0101B70E010119
:1005F80001019C6F01010101BCC19EF101010101D2
:100608009F6B01010101BB5101010101A06F0101B3
:10061800A16B0101A0BFA1070101010E01010101A8
:10062800A36F0101A70E01010101A26F3AEC09F0C5
:100638000CD001010101BC510A0AD8B47FD72D0A98
:10064800D8B4CED70F0AD8B4A2D70101010E010140
:1006580001019B6F0101BC0E010101019A6F0101AB
:10066800010E010101019D6F0101A70E01010101A8
:100678009C6F0A0E14EC0EF001010101BB6F010121
:100688000101BBBF3AD77BD00101010E0101010175
:100698009D6F0101B90E010101019C6F010101016A
:1006A800BCC19EF1010101019F6B01010101BB5118
:1006B80001010101A06F0101A16B0101A0BFA10708
:1006C8000101010E01010101A36F0101A70E010142
:1006D8000101A26F1EEC0CF010D70101010E0101FF
:1006E80001018C6F0101B50E010101018B6F010140
:1006F8000101BCC18DF1010101018E6B01010101F4
:10070800BB51010101018F6F0101906B01018FBF86
:1007180090070101010E01010101926F0101A70E6D
:1007280001010101916FB6EC0EF0E7D60101010E4F
:10073800010101018C6F0101B50E010101018B6FEF
:1007480001010101BCC18DF1010101018E6B0101A3
:100758000101BB51010101018F6F0101906B010182
:100768008FBF90070101010E01010101926F010184
:10077800A70E01010101916FB6EC0EF0BED6010182
:100788000101BC510B0AD8B47FD7150AD8B4A5D734
:100798003E0AD8B4CBD7B1D6F7D0000120EE1AF074
:1007A8000001E851D9260001E951DA22DF500001A1
:1007B800B66F0001B651010D0F0EF326000EF4229C
:1007C800F35000010001E825D96EF4500001000142
:1007D800E921DA6EDF50C96E000120EE0CF000014D
:1007E800E851D9260001E951DA22060EDF6E12001F
:1007F800C5BC39D0C58A000120EE1CF00001E851C3
:10080800D9260001E951DA22DECFB6F0DDCFB7F004
:100818000F0E0001B627000EB7230001B6510001E4
:100828000001E825D96E0001B75100010001E92156
:10083800DA6EDF50C96E000120EE1CF00001E851AD
:10084800D9260001E951DA22DE2A000EDD22000154
:1008580020EE0CF00001E851D9260001E951DA2216
:10086800070EDF6E1200000120EE0CF00001E851C7
:10087800D9260001E951DA22010EDF6E1200C5BC4B
:100888006BD0C58A000120EE1CF00001E851D92682
:100898000001E951DA22DECFB6F0DDCFB7F0000172
:1008A80020EE19F00001E851D9260001E951DA22B9
:1008B800DF500001B86FB96B0001B7510001B919D9
:1008C80004E10001B6510001B819D8A40DD0000107
:1008D80020EE0CF00001E851D9260001E951DA2296
:1008E8000A0EDF6EC5841200000120EE1CF0000124
:1008F800E851D9260001E951DA22DECFB6F0DDCF82
:10090800B7F00F0E0001B627000EB7230001B6514D
:1009180000010001E825D96E0001B751000100016E
:10092800E921DA6EDF50C96E000120EE1CF00001EB
:10093800E851D9260001E951DA22DE2A000EDD222B
:10094800000120EE0CF00001E851D9260001E95120
:10095800DA22070EDF6E1200000120EE0CF0000113
:10096800E851D9260001E951DA22090EDF6E12009A
:10097800000120EE0CF00001E851D9260001E951F0
:10098800DA22030EDF6E1200000120EE0CF00001E7
:10099800E851D9260001E951DA22DF50050AD8B416
:1009A800FCD6030AD8B424D7010AD8B468D70D0AEC
:1009B800D8A41200DDD7C0D0000120EE22F000013B
:1009C800E851D9260001E951DA22DF50C96E000149
:1009D80020EE0CF00001E851D9260001E951DA2295
:1009E8000D0EDF6E1200C5BC0DD0C586000120EECD
:1009F8000CF00001E851D9260001E951DA220F0E66
:100A0800DF6E1200000120EE0CF00001E851D9263B
:100A18000001E951DA220E0EDF6E1200000120EE0D
:100A28001EF00001E851D9260001E951DA22DECF93
:100A3800B6F0DDCFB7F00001B65100010001E8259E
:100A4800D96E0001B75100010001E921DA6EC9CF62
:100A5800DFFF000120EE1EF00001E851D926000159
:100A6800E951DA22DE2A000EDD22000120EE1EF016
:100A78000001E851D9260001E951DA22DECFB6F0AB
:100A8800DDCFB7F0000120EE0AF00001E851D926C9
:100A98000001E951DA22DF500001B86FB96B00019B
:100AA800B7510001B91904E10001B6510001B819A4
:100AB800D8A40ED0C58AC588000120EE0CF000012C
:100AC800E851D9260001E951DA22110EDF6E120031
:100AD800C59AC588000120EE0CF00001E851D9261E
:100AE8000001E951DA22100EDF6E1200C5860001FE
:100AF80020EE0CF00001E851D9260001E951DA2274
:100B08000F0EDF6E1200C584000120EE0CF000010C
:100B1800E851D9260001E951DA22120EDF6E1200DF
:100B2800000120EE0CF00001E851D9260001E9513E
:100B3800DA22030EDF6E1200000120EE0CF0000135
:100B4800E851D9260001E951DA22DF500C0AD8B45D
:100B580033D7010AD8B447D7020AD8B45FD71F0AD7
:100B6800D8B4C4D7010AD8B4CED7030AD8A412007F
:100B7800D7D7E8CF8AF1000120EE0CF00001E85148
:100B8800D9260001E951DA22DF50030AD8B402D08D
:100B9800000E1200000120EE0CF00001E851D926E9
:100BA8000001E951DA22030EDF621200000120EE93
:100BB8001CF00001E851D9260001E951DA22010EA2
:100BC800DE6E000EDD6E000120EE1BF00001E85124
:100BD800D9260001E951DA22000110EE0FF00001D8
:100BE800E851E1260001E951E222DFCFE7FF0001E9
:100BF80020EE19F00001E851D9260001E951DA2266
:100C0800010101018A29DF6E000E010101018C6FCB
:100C1800010E01018B6F3DD0FF0E0101846FFF0EA5
:100C2800856F01018BC186F101018CC187F101013A
:100C380084510101862701018551010187230101A2
:100C48008651010101018225D96E010187510101F7
:100C580001018321DA6E0F0E010101018B250101CB
:100C6800886F000E010101018C210101896F0101CA
:100C7800885100010001E825E16E01018951000158
:100C88000001E921E26EDFCFE7FF010101018B4B93
:100C98008C2B010101018A510101846F856B010EC2
:100CA80001018427000E8523010101018C51800A6E
:100CB8000101866F8451010101018B5D010185519C
:100CC800800A01018659D8A0A7D7000120EE20F09C
:100CD8000001E851D9260001E951DA22010EDF6E40
:100CE800000120EE21F00001E851D9260001E95168
:100CF800DA22000EDF6E000120EE0CF00001E85150
:100D0800D9260001E951DA22050EDF6EC580C5B08B
:100D1800FED7010E1200010120EE35F001018C51C1
:100D2800D92601018D51DA22DF5001010101956FA9
:100D38000101010195510D0DF350010101018C25AF
:100D480001010101986FF450010101018D21010198
:100D5800996F010E98C1D9FF99C1DAFFDF6274D08B
:100D6800010120EE01F001019851D92601019951A4
:100D7800DA22DF50010101018E5DD8B002D0FD0EEC
:100D88001200010120EE01F001019851D92601015C
:100D98009951DA22DF500101936F0101935101014A
:100DA8000101966F0101976B0101010192C183F165
:100DB8000101010191C182F1030E01010101982590
:100DC8000101936F000E0101010199210101946F46
:100DD80093C184F194C185F196C186F197C187F1D9
:100DE8002DEC0DF0010120EE35F001018C51D926D2
:100DF80001018D51DA22010110EE35F001018C510B
:100E0800E12601018D51E222E7500101936F0101B2
:100E18009329030BDF6E010120EE02F001019851C6
:100E2800D92601019951DA228FC1E1FF90C1E2FF71
:100E3800DFCFE7FF98C1D9FF99C1DAFF000EDF6E57
:100E48000101010196511200FC0E1200000120EE72
:100E580035F00001C051D9260001C151DA22DF5016
:100E680000010001C96F00010001C9510D0DF350C7
:100E780000010001C02500010001CC6FF450000101
:100E88000001C1210001CD6F010ECCC0D9FFCDC03A
:100E9800DAFFDF6274D0000120EE01F00001CC51CE
:100EA800D9260001CD51DA22DF5000010001C25DD0
:100EB800D8B002D0FD0E1200000120EE01F00001B2
:100EC800CC51D9260001CD51DA22DF500001C76F7D
:100ED8000001C75100010001CA6F0001CB6B00017E
:100EE8000001C6C0B7F000010001C5C0B6F0030E8E
:100EF80000010001CC250001C76F000E00010001B0
:100F0800CD210001C86FC7C0B8F0C8C0B9F0CAC0C9
:100F1800BAF0CBC0BBF05CEC0DF0000120EE35F070
:100F28000001C051D9260001C151DA22000110EE9A
:100F380035F00001C051E1260001C151E222E7501D
:100F48000001C76F0001C729030BDF6E000120EE07
:100F580002F00001CC51D9260001CD51DA22C3C0DC
:100F6800E1FFC4C0E2FFDFCFE7FFCCC0D9FFCDC0AF
:100F7800DAFF000EDF6E00010001CA511200FC0EFC
:100F88001200010101018EC193F101010101946B6D
:100F9800010120EE34F001018C51D92601018D5157
:100FA800DA22DF5001010101956F0101010195511C
:100FB8000D0DF350010101018C2501010101966F0E
:100FC800F450010101018D210101976F96C1D9FFEC
:100FD80097C1DAFFDF50D8B402D0FF0E120001012A
:100FE80020EE01F001019651D92601019751DA222C
:100FF80001018EC1DFFF010120EE02F001019651CF
:10100800D92601019751DA2201018FC1DFFF030EB2
:1010180001010101962501010101826F000E010104
:10102800010197210101836F0101010191C185F13E
:101038000101010190C184F193C186F194C187F146
:101048002DEC0DF0010120EE34F001018C51D92670
:1010580001018D51DA22010110EE34F001018C51A9
:10106800E12601018D51E222E7500101926F010151
:101078009229030BDF6E96C1D9FF97C1DAFF010EE3
:10108800DF6E010E120000010001C2C0C7F00001AE
:101098000001C86B000120EE34F00001C051D926D0
:1010A8000001C151DA22DF5000010001C96F0001BF
:1010B8000001C9510D0DF35000010001C0250001C8
:1010C8000001CA6FF45000010001C1210001CB6F7B
:1010D800CAC0D9FFCBC0DAFFDF50D8B402D0FF0EA8
:1010E8001200000120EE01F00001CA51D9260001CA
:1010F800CB51DA220001C2C0DFFF000120EE02F06E
:101108000001CA51D9260001CB51DA220001C3C01F
:10111800DFFF030E00010001CA2500010001B66FC0
:10112800000E00010001CB210001B76F0001000192
:10113800C5C0B9F000010001C4C0B8F0C7C0BAF01A
:10114800C8C0BBF05CEC0DF0000120EE34F00001EB
:10115800C051D9260001C151DA22000110EE34F045
:101168000001C051E1260001C151E222E75000010F
:10117800C66F0001C629030BDF6ECAC0D9FFCBC0FA
:10118800DAFF010EDF6E010E1200E8CF82F10001D6
:1011980020EE0CF00001E851D9260001E951DA22CD
:1011A800DF50030AD8B402D0000E1200000120EE6E
:1011B8000CF00001E851D9260001E951DA22030EAA
:1011C800DF621200000120EE21F00001E851D9266B
:1011D8000001E951DA22010EDF6E000120EE20F055
:1011E8000001E851D9260001E951DA22000EDF6E2C
:1011F800000120EE22F00001E851D9260001E95152
:10120800DA22000110EE1BF00001E851E12600018E
:10121800E951E222E7500109DF6E000120EE0AF0F1
:101228000001E851D9260001E951DA22010182C101
:10123800DFFF000120EE0CF00001E851D926000183
:10124800E951DA220C0EDF6E000120EE1EF00001DB
:10125800E851D9260001E951DA22000EDE6E000EAF
:10126800DD6EC580C5B0FED7010E12000101010177
:101278009E51280A9F11D8A436D001010101A3C1AB
:1012880083F101010101A2C182F101010101A05113
:10129800BDEC05F00009D8A410D09EC198F1010159
:1012A8000101A3C19AF101010101A2C199F1010152
:1012B8000101A05128EC0FF012000101A46F270EC4
:1012C80001010101986F0101A45101010101A3C1AC
:1012D8009AF101010101A2C199F101010101A05195
:1012E80028EC0FF01200010101019E51270A9F11FD
:1012F800D8A41200AA0EA2C1D9FFA3C1DAFFDF62E7
:1013080007D0000E01010101A16F050E0101A06FB8
:1013180001010101A051C9EC08F00009D8A412008C
:101328009EC198F101010101A3C19AF101010101D6
:10133800A2C199F101010101A05128EC0FF012009E
:1013480020EE14F06550D9266650DA22000EDF6EC2
:1013580020EE16F06550D9266650DA22010182C1C6
:10136800DFFF000E010101018A6F000E0101896F84
:101378001ED0010101018951010101018425D96EA5
:10138800010101018A51010101018521DA6E010182
:10139800010189516524E16E010101018A5166202C
:1013A800E26EDFCFE7FF01010101894B8A2B010EB5
:1013B8000101010182250101866F000E0101010171
:1013C80083210101876F010101018A51800A01010E
:1013D800886F865101010101895D01018751800AE9
:1013E80001018859D8B01200C4D70DC012F0136A91
:1013F80020EE34F00B50D9260C50DA22DF50146E50
:1014080014500D0DF3500B24156EF4500C20166E6D
:1014180015C0D9FF16C0DAFFDF50D8B402D0FF0ECE
:10142800120020EE01F01550D9261650DA220DC010
:10143800DFFF20EE02F01550D9261650DA220EC032
:10144800DFFF030E1524016E000E1620026E10C079
:1014580004F00FC003F012C005F013C006F077ECDB
:101468000EF020EE34F00B50D9260C50DA2210EE94
:1014780034F00B50E1260C50E222E750116E11288F
:10148800030BDF6E15C0D9FF16C0DAFF010EDF6E41
:10149800010E1200E8CF87F1000EAC6E000EAB6EA5
:1014A8000101010187B1AC880101010187A302D0C4
:1014B800AC8CAB8C0101010187B5AC8E0101010137
:1014C80087A702D0AB8801D0AB8A0101010187B997
:1014D800AC849E980101010187BBAB860101010123
:1014E80087AD02D09D8A01D09D9A9E9A0101010183
:1014F80087AF02D09D8801D09D9882C1AFFF0101BE
:1015080083C184F184C185F10101866B0101855194
:10151800B06EAC8AAB8E949C948EACA81200ACBE14
:101528001200948C12000101010185518411D8B474
:101538003AD00101866F010E01010101876F010197
:10154800865109D0010101010101D89084378537FE
:1015580001010101872B0101010185AFF3D70101C9
:101568000101845101010101825D010101018551DF
:10157800010101018359D8A00CD001010101845156
:1015880001010101825F0101010185510101010190
:10159800835B010101010101D89085338433010186
:1015A8000101872FDCD782C182F183C183F1120048
:1015B800000E00010001B76F000E0001B66F37EC96
:1015C80010F00001000E00010001CF6F0001D60EDF
:1015D80000010001CE6F0001000E00010001D16F73
:1015E8000001D80E00010001D06F020E56EC0EF07B
:1015F80000010001D46F0001D56B0001D4BFD507ED
:1016080000010001D451020AD511D8A4120000012A
:10161800D36F0A0E00010001CC6F0001D351000105
:10162800000E00010001CE6F0001D80E000100017C
:10163800CD6F020E5EEC0FF01200E9CFDCF0EACFBE
:10164800DDF0E1CFDEF0E2CFDFF0D9CFE0F0DACFA6
:10165800E1F0F3CFE2F0F4CFE3F0F6CFE4F0F7CF28
:10166800E5F0F8CFE6F0F5CFE7F09EA603D09E961A
:101678008EEC0CF0F2A403D0F294DCEC0AF0C4EC8B
:101688000CF0E7C0F5FFE6C0F8FFE5C0F7FFE4C0DF
:10169800F6FFE3C0F4FFE2C0F3FFE1C0DAFFE0C009
:1016A800D9FFDFC0E2FFDEC0E1FFDDC0EAFFDCC03A
:1016B800E9FFDBC0FBFFDAC0FAFF110001010001FE
:1016C80083C1E9F00101000182C1E8F0000120EEC8
:1016D8000AF00001E851D9260001E951DA22000E8A
:1016E800DF6E000120EE0BF00001E851D926000161
:1016F800E951DA22000EDF6E000120EE0CF0000145
:10170800E851D9260001E951DA22030EDF6E000103
:1017180020EE0EF00001E851D9260001E951DA2245
:10172800000EDF6E000120EE1AF00001E851D92604
:101738000001E951DA22000EDF6E1200D1EC0DF043
:1017480001010101875101018611D8B4120001017C
:10175800886F010E586E010188510001000E0101C9
:101768000101836F0001800E01010101826F43ECCA
:101778000FF00009D8B407D00101886F000E586E29
:101788000101885112000101010E01010101836F5D
:1017980001014C0E01010101826F43EC0FF00009B9
:1017A800D8B407D00101886F000E586E0101885126
:1017B80012000A0EF5EC0FF0D0D7010120EE34F03C
:1017C80001018251D92601018351DA22000EDF6E10
:1017D800010120EE35F001018251D9260101835122
:1017E800DA22000EDF6E0101846F000E0101010193
:1017F800856F01018451030E01010101856501D046
:1018080012000101010185510D0DF3500101010183
:101818008225D96EF450010101018321DA6E000E90
:10182800DF6E01010101852B030E010101018565B0
:10183800E8D712009CC1D9FF9DC1DAFFDE2A000E4D
:10184800DD229CC1D9FF9DC1DAFF0101DECF82F103
:101858000101DDCF83F1000E01010101856F0A0E40
:101868000101846F97EC0AF0010101018251090A14
:1018780001018311D8A412000101A46F140E010103
:101888000101986F0101A451010101019DC19AF163
:10189800010101019CC199F1020E0DEC0FF001014B
:1018A8000101A56F12000101866F000E586E01013B
:1018B80086510101010E01010101836F01014C0EE6
:1018C80001010101826FE1EC0BF00001000E010142
:1018D8000101836F0001800E01010101826FE1ECBB
:1018E8000BF00101010E01010101836F0101160EC8
:1018F80001010101826FE1EC0BF00201020E01010E
:101908000101836F0201000E01010101826FE1EC08
:101918000BF01200000120EE21F00001E851D92659
:101928000001E951DA22010EDF620FD0000120EE3A
:1019380020F00001E851D9260001E951DA22DF50F0
:10194800D8A403D0DFEC04F01200000120EE20F050
:101958000001E851D9260001E951DA22010EDF62BF
:101968001200000120EE21F00001E851D926000103
:10197800E951DA22DF50D8A41200D0EC03F01200AB
:10198800586601D01200AEEC0DF000010001B9510B
:101998000001B811D8A4120040EC10F000010001B9
:1019A800B7510001B611D8B412000001000E0001B1
:1019B8000001B76F0001800E00010001B66F79ECDD
:1019C8000FF00009D8A412000101010E0001000166
:1019D800B76F01014C0E00010001B66F79EC0FF0F2
:1019E8000009D8B44DEC10F0120020EE14F0655048
:1019F800D9266650DA2210EE16F06550E1266650B8
:101A0800E222E750DF620AD09D9820EE14F065507C
:101A1800D9266650DA22000EDF6E120020EE14F08E
:101A28006550D9266650DA22DF50026E0250010D49
:101A3800F3506524D96EF4506620DA6EDF5000EC5E
:101A480010F020EE14F06550D9266650DA22DF2A0D
:101A580012000101010185C18BF10101010184C15D
:101A68008AF10101010183C189F10101010182C1EA
:101A780088F112D08AC1D9FF8BC1DAFF88C1E1FF92
:101A880089C1E2FFDFCFE7FF010101018A4B8B2B00
:101A980001010101884B892B010101018607D8A0AA
:101AA800870701018629D8B48729D8B41200E2D75C
:101AB80000010001B9C0BFF000010001B8C0BEF0CC
:101AC80000010001B7C0BDF000010001B6C0BCF0C4
:101AD80012D0BEC0D9FFBFC0DAFFBCC0E1FFBDC095
:101AE800E2FFDFCFE7FF00010001BE4BBF2B000183
:101AF8000001BC4BBD2B00010001BA07D8A0BB07F1
:101B08000001BA29D8B4BB29D8B41200E2D7F2AC84
:101B180008D0000E01010101856F000E0101846FDC
:101B280012001CEC10F00101010183510101821126
:101B3800D8B408D0000E01010101856F000E010123
:101B4800846F1200000E01010101856F010E010171
:101B5800846F1200F2AC08D0000E00010001B96FCA
:101B6800000E0001B86F120040EC10F000010001F7
:101B7800B7510001B611D8B408D0000E0001000119
:101B8800B96F000E0001B86F1200000E00010001CD
:101B9800B96F010E0001B86F12008BEC0DF0010156
:101BA8000101855101018411D8A411D01CEC10F059
:101BB80001010101835101018211D8A408D0000E4E
:101BC80001010101876F010E0101866F1200000EED
:101BD80001010101876F000E0101866F1200E8CF35
:101BE80082F1000120EE1BF00001E851D926000126
:101BF800E951DA22010182C1DFFF080EC66EC68AEA
:101C0800770EC86E000120EE1CF00001E851D926BD
:101C18000001E951DA22010EDE6E000EDD6E1200BF
:101C2800E8CF9EF10101010E010101018D6F010153
:101C38004C0E010101018C6F9EC18EF10101010161
:101C48009BC190F1010101019AC18FF101010101CC
:101C58009DC192F1010101019CC191F18FEC06F047
:101C68001200E8CF9EF10001000E010101018D6F05
:101C78000001800E010101018C6F9EC18EF10101EE
:101C880001019BC190F1010101019AC18FF101018C
:101C980001019DC192F1010101019CC191F18FECFB
:101CA80006F01200E8CFD2F00201020E0001000196
:101CB800C16F0201000E00010001C06FD2C0C2F066
:101CC80000010001CFC0C4F000010001CEC0C3F084
:101CD80000010001D1C0C6F000010001D0C0C5F06C
:101CE8002AEC07F0120004C00AF003C009F002C091
:101CF80008F001C007F00ED009C0D9FF0AC0DAFF0A
:101D080007C0E1FF08C0E2FFDFCFE7FF094A0A2A60
:101D1800074A082A0506D8A006060528D8B40628C2
:101D2800D8B41200E9D7010183C166F0010182C16C
:101D380065F020EE14F06550D9266650DA22000EC0
:101D4800DF6E20EE15F06550D9266650DA22000EB7
:101D5800DF6E20EE16F06550D9266650DA22000EA6
:101D6800DF6E1200010101018D511E0A8E11D8B4D7
:101D78001200010101018D51200A8E11D8A4120010
:101D88008FC182F190C183F10101010192C185F1F6
:101D98000101010191C184F1A4EC09F09D881200B0
:101DA80002EE00F0360EEE6AE806FDE101EE00F004
:101DB800820EEE6AE806FDE100EE80F0360EEE6A6D
:101DC800E806FDE100EE34F0310EEE6AE806FDE1CA
:101DD800000EF86E000126EF02F0E8CF82F1010153
:101DE800010182517E0BCD6E0101010182AD02D04D
:101DF800CD8E01D0CD9E000ECF6E000ECE6E9E9081
:101E08000101010182AF02D09D8001D09D90CD805B
:101E18001200E8CF9BF10201020E010101018D6F52
:101E28000201000E010101018C6F9BC18EF198C166
:101E38008FF1010101019AC191F10101010199C1DB
:101E480090F1C5EC07F01200E8CF9BF10001000EFD
:101E5800010101018D6F0001800E010101018C6FEC
:101E68009BC18EF198C18FF1010101019AC191F1D5
:101E78000101010199C190F1C5EC07F012000101BF
:101E880020EE35F001018251D92601018351DA2271
:101E9800DF500101846F010184510D0DF3500101E0
:101EA80001018225D96EF450010101018321DA6E06
:101EB800DF501200E8CFCFF00001000E0001000152
:101EC800C16F0001800E00010001C06FCFC0C2F0D9
:101ED800CCC0C3F000010001CEC0C5F00001000174
:101EE800CDC0C4F047EC08F01200000120EE35F038
:101EF8000001B651D9260001B751DA22DF5000019E
:101F0800B86F0001B8510D0DF35000010001B6255E
:101F1800D96EF45000010001B721DA6EDF501200CB
:101F28002EEC10F001C01CF002C01DF01B6E0B0E51
:101F3800176E1B50000E196E000E186E000ED4ECB2
:101F48000FF0000E026E000E016E25EC10F012006C
:101F5800E8CF82F10101010182517F0BD56E000E9D
:101F6800D76E000ED66EF2940101010182AF02D045
:101F7800F28A01D0F29AD58E1200E8CF1AF0000149
:101F8800000E0C6E0001800E0B6E1AC00DF017C00B
:101F98000EF019C010F018C00FF0F9EC09F012009B
:101FA800E8CF1AF00101010E0C6E01014C0E0B6E08
:101FB8001AC00DF017C00EF0106A18C00FF0F9EC37
:101FC80009F01200F20E5916ABAC03D05990ABB021
:101FD8005980ABB45984ABB25986AECF01F00150E9
:101FE8001200E8CF82F1FA0E00F0E82EFDD70101C9
:101FF8000101822FF8D71200E8CF01F0ACAC03D072
:10200800AC9059B2AC8001C0ADFF120001010101D2
:1020180089C18BF10101010188C18AF1120082C1D5
:10202800D9FF83C1DAFF000EDE6E000EDD6E1200EE
:10203800000EF2AE010E01010101826F0101836BF6
:10204800120001C003F002C004F004C0CFFF03C0B7
:10205800CEFF1200CECF03F0CFCF04F003C001F0C3
:1020680004C002F01200B6C0B8F0B7C0B9F0B9C0E9
:10207800D7FFB8C0D6FF1200000EF2AE010E000165
:102088000001B66F0001B76B1200D08EF28EF28C91
:082098001200D38E03001200B8
:067FF80080F4C5FFFFF15B
:00000001FF
