:0400000060EF00F0BD
:0C000800FACFDAF0FBCFDBF0E8EF09F0F4
:10001800D8CF4FF0E8CF50F0E0CF51F0FACF52F000
:10002800FBCF53F0E9CF54F0EACF55F0E1CF56F0CB
:10003800E2CF57F0D9CF58F0DACF59F0F3CF5AF0D2
:10004800F4CF5BF0F6CF5CF0F7CF5DF0F8CF5EF061
:10005800F5CF5FF09EA003D09E9048EC0EF09EAACC
:1000680003D09E9A01EC06F09EB89DA802D069ECD8
:100078000AF05FC0F5FF5EC0F8FF5DC0F7FF5CC027
:10008800F6FF5BC0F4FF5AC0F3FF59C0DAFF58C04F
:10009800D9FF57C0E2FF56C0E1FF55C0EAFF54C080
:1000A800E9FF53C0FBFF52C0FAFF51C0E0FF50C048
:1000B800E8FF4FC0D8FF100088EF0DF0820ED36E16
:1000C8009B8C0101010E01010101836F0101BB0E2F
:1000D80001010101826F60EC0EF00101010E0101C6
:1000E8000101836F0101D40E01010101826F29EC26
:1000F8000AF00101010E01010101836F0101B90E2E
:1001080001010101826FDEEC0EF05EEC0BF0000ED7
:10011800936E000E8A6ED30E77EC0EF0F50EA5ECFA
:100128000DF09F909F9A9F989F860101A66F9E0E43
:1001380001010101B46F0101A65101010101B4518E
:10014800C6EC0CF09D86000E01010101836F9B0E29
:100158000101826F7C0E15EC09F0B896AB8EAB8866
:10016800000E01010101156F000E0101146F14EC5E
:100178000FF0A9EC0AF00101010E010101019B6FCA
:100188000101D30E010101019A6F0101010E010164
:1001980001019D6F0101A70E010101019C6F0A0E6B
:1001A80008EC0DF001010101D26F01010101D2BF7C
:1001B80088D07BD00101010E01010101836F01018B
:1001C800B20E01010101826F01010101D3C184F165
:1001D80001010101856B01010101D25101010101F8
:1001E800866F0101876B010186BF87070101010E38
:1001F80001010101896F0101A70E01010101886F49
:10020800D5EC0EF05ED00101010E010101019D6FD8
:100218000101B70E010101019C6F01010101D3C168
:100228009EF1010101019F6B01010101D251010100
:100238000101A06F0101A16B0101A0BFA10701018C
:10024800010E01010101A36F0101A70E01010101C6
:10025800A26F07EC08F035D00101010E0101010180
:100268009D6F0101B70E010101019C6F01010101A0
:10027800D3C19EF1010101019F6B01010101D2511E
:1002880001010101A06F0101A16B0101A0BFA1073C
:100298000101010E01010101A36F0101A70E010176
:1002A8000101A26F07EC08F00CD001010101D35144
:1002B8000A0AD8B47FD72D0AD8B4CED70F0AD8B433
:1002C800A2D70101010E010101019B6F0101D30EAB
:1002D800010101019A6F0101010E010101019D6FE8
:1002E8000101A70E010101019C6F0A0EE7EC0CF059
:1002F80001010101D26F01010101D2BF3AD77BD0C0
:100308000101010E010101019D6F0101B90E0101F9
:1003180001019C6F01010101D3C19EF1010101019D
:100328009F6B01010101D25101010101A06F01017F
:10033800A16B0101A0BFA1070101010E010101018B
:10034800A36F0101A70E01010101A26F25EC0BF0BB
:1003580010D70101010E010101018C6F0101B50ED9
:10036800010101018B6F01010101D3C18DF101016F
:1003780001018E6B01010101D251010101018F6F51
:100388000101906B01018FBF90070101010E01016E
:100398000101926F0101A70E01010101916F6AEC41
:1003A8000DF0E7D60101010E010101018C6F010179
:1003B800B50E010101018B6F01010101D3C18DF15E
:1003C800010101018E6B01010101D25101010101FD
:1003D8008F6F0101906B01018FBF90070101010E22
:1003E80001010101926F0101A70E01010101916F45
:1003F8006AEC0DF0BED601010101D3510B0AD8B445
:100408007FD7150AD8B4A5D73E0AD8B4CBD7B1D66A
:10041800F7D0000120EE1AF00001E851D9260001BA
:10042800E951DA22DF500001B66F0001B651010D23
:100438000F0EF326000EF422F35000010001E82508
:10044800D96EF45000010001E921DA6EDF50C96E5F
:10045800000120EE0CF00001E851D9260001E95115
:10046800DA22060EDF6E1200C5BC39D0C58A00013B
:1004780020EE1CF00001E851D9260001E951DA22EA
:10048800DECFB6F0DDCFB7F00F0E0001B627000EB5
:10049800B7230001B65100010001E825D96E00011B
:1004A800B75100010001E921DA6EDF50C96E000181
:1004B80020EE1CF00001E851D9260001E951DA22AA
:1004C800DE2A000EDD22000120EE0CF00001E851CA
:1004D800D9260001E951DA22070EDF6E1200000169
:1004E80020EE0CF00001E851D9260001E951DA228A
:1004F800010EDF6E1200C5BC6BD0C58A000120EE6C
:100508001CF00001E851D9260001E951DA22DECFBA
:10051800B6F0DDCFB7F0000120EE19F00001E85188
:10052800D9260001E951DA22DF500001B86FB96B12
:100538000001B7510001B91904E10001B6510001E9
:10054800B819D8A40DD0000120EE0CF00001E85134
:10055800D9260001E951DA220A0EDF6EC58412009D
:10056800000120EE1CF00001E851D9260001E951F4
:10057800DA22DECFB6F0DDCFB7F00F0E0001B627D6
:10058800000EB7230001B65100010001E825D96E1D
:100598000001B75100010001E921DA6EDF50C96E90
:1005A800000120EE1CF00001E851D9260001E951B4
:1005B800DA22DE2A000EDD22000120EE0CF0000116
:1005C800E851D9260001E951DA22070EDF6E120040
:1005D800000120EE0CF00001E851D9260001E95194
:1005E800DA22090EDF6E1200000120EE0CF0000185
:1005F800E851D9260001E951DA22030EDF6E120014
:10060800000120EE0CF00001E851D9260001E95163
:10061800DA22DF50050AD8B4FCD6030AD8B424D7A6
:10062800010AD8B468D70D0AD8A41200DDD7C0D003
:10063800000120EE22F00001E851D9260001E9511D
:10064800DA22DF50C96E000120EE0CF00001E851FB
:10065800D9260001E951DA220D0EDF6E1200C5BC61
:100668000DD0C586000120EE0CF00001E851D92616
:100678000001E951DA220F0EDF6E1200000120EEB0
:100688000CF00001E851D9260001E951DA220E0EDA
:10069800DF6E1200000120EE1EF00001E851D9269D
:1006A8000001E951DA22DECFB6F0DDCFB7F0000164
:1006B800B65100010001E825D96E0001B7510001CB
:1006C8000001E921DA6EC9CFDFFF000120EE1EF03C
:1006D8000001E851D9260001E951DA22DE2A000E8C
:1006E800DD22000120EE1EF00001E851D9260001AC
:1006F800E951DA22DECFB6F0DDCFB7F0000120EE07
:100708000AF00001E851D9260001E951DA22DF5048
:100718000001B86FB96B0001B7510001B91904E1C4
:100728000001B6510001B819D8A40ED0C58AC588F1
:10073800000120EE0CF00001E851D9260001E95132
:10074800DA22110EDF6E1200C59AC588000120EE6C
:100758000CF00001E851D9260001E951DA22100E07
:10076800DF6E1200C586000120EE0CF00001E85192
:10077800D9260001E951DA220F0EDF6E1200C58476
:10078800000120EE0CF00001E851D9260001E951E2
:10079800DA22120EDF6E1200000120EE0CF00001CA
:1007A800E851D9260001E951DA22030EDF6E120062
:1007B800000120EE0CF00001E851D9260001E951B2
:1007C800DA22DF500C0AD8B433D7010AD8B447D795
:1007D800020AD8B45FD71F0AD8B4C4D7010AD8B45C
:1007E800CED7030AD8A41200D7D7E8CF8AF10001E0
:1007F80020EE0CF00001E851D9260001E951DA2277
:10080800DF50030AD8B402D0000E1200000120EE17
:100818000CF00001E851D9260001E951DA22030E53
:10082800DF621200000120EE1CF00001E851D92619
:100838000001E951DA22010EDE6E000EDD6E0001C4
:1008480020EE1BF00001E851D9260001E951DA2217
:10085800000110EE0FF00001E851E1260001E95116
:10086800E222DFCFE7FF000120EE19F00001E85196
:10087800D9260001E951DA22010101018A29DF6E36
:10088800000E010101018C6F010E01018B6F3DD03B
:10089800FF0E0101846FFF0E856F01018BC186F188
:1008A80001018CC187F101018451010186270101F1
:1008B800855101018723010186510101010182252A
:1008C800D96E01018751010101018321DA6E0F0EF2
:1008D800010101018B250101886F000E0101010151
:1008E8008C210101896F0101885100010001E8256F
:1008F800E16E0101895100010001E921E26EDFCFBB
:10090800E7FF010101018B4B8C2B010101018A5189
:100918000101846F856B010E01018427000E852378
:10092800010101018C51800A0101866F8451010186
:1009380001018B5D01018551800A01018659D8A00A
:10094800A7D7000120EE20F00001E851D9260001C8
:10095800E951DA22010EDF6E000120EE21F00001DC
:10096800E851D9260001E951DA22000EDF6E0001B4
:1009780020EE0CF00001E851D9260001E951DA22F5
:10098800050EDF6EC580C5B0FED7010E120001014D
:1009980020EE35F001018C51D92601018D51DA2262
:1009A800DF5001010101956F0101010195510D0D04
:1009B800F350010101018C2501010101986FF450E8
:1009C800010101018D210101996F010E98C1D9FF23
:1009D80099C1DAFFDF6274D0010120EE01F0010154
:1009E8009851D92601019951DA22DF5001010101FC
:1009F8008E5DD8B002D0FD0E1200010120EE01F08C
:100A080001019851D92601019951DA22DF500101DB
:100A1800936F0101935101010101966F0101976BD9
:100A28000101010192C183F10101010191C182F12A
:100A3800030E0101010198250101936F000E0101C8
:100A4800010199210101946F93C184F194C185F149
:100A580096C186F197C187F100EC0CF0010120EEF8
:100A680035F001018C51D92601018D51DA2201019D
:100A780010EE35F001018C51E12601018D51E22281
:100A8800E7500101936F01019329030BDF6E010108
:100A980020EE02F001019851D92601019951DA227C
:100AA8008FC1E1FF90C1E2FFDFCFE7FF98C1D9FF17
:100AB80099C1DAFF000EDF6E0101010196511200A3
:100AC800FC0E1200000120EE35F00001C051D926BD
:100AD8000001C151DA22DF5000010001C96F000195
:100AE8000001C9510D0DF35000010001C02500019E
:100AF8000001CC6FF45000010001C1210001CD6F4D
:100B0800010ECCC0D9FFCDC0DAFFDF6274D000017E
:100B180020EE01F00001CC51D9260001CD51DA2296
:100B2800DF5000010001C25DD8B002D0FD0E1200F6
:100B3800000120EE01F00001CC51D9260001CD5171
:100B4800DA22DF500001C76F0001C7510001000120
:100B5800CA6F0001CB6B00010001C6C0B7F00001ED
:100B68000001C5C0B6F0030E00010001CC2500014C
:100B7800C76F000E00010001CD210001C86FC7C07A
:100B8800B8F0C8C0B9F0CAC0BAF0CBC0BBF02FECFF
:100B98000CF0000120EE35F00001C051D92600010B
:100BA800C151DA22000110EE35F00001C051E126F2
:100BB8000001C151E222E7500001C76F0001C729B7
:100BC800030BDF6E000120EE02F00001CC51D926A4
:100BD8000001CD51DA22C3C0E1FFC4C0E2FFDFCF7C
:100BE800E7FFCCC0D9FFCDC0DAFF000EDF6E0001F1
:100BF8000001CA511200FC0E12009EAA7FD0B1EC6F
:100C08000EF04D6E20EE15F06050D9266150DA22B4
:100C1800020EDF6256D020EE15F06050D9266150E2
:100C2800DA22DF504C6E4C50010D0A0EF326000EEE
:100C3800F422F3506024D96EF4506120DA6E4DC06E
:100C4800DFFF20EE15F06050D9266150DA22DF2A46
:100C580020EE0AF06050D9266150DA22AA0EDF622F
:100C680027D020EE0BF06050D9266150DA22DF50F1
:100C7800D8A41ED020EE0CF06050D9266150DA229C
:100C8800AA0EDF6215D04C6E280E486E4C500A0E24
:100C98006024496E000E61204A6E20EE15F0605007
:100CA800D9266150DA22DF508CEC0EF08A868A96BB
:100CB80020EE15F06050D9266150DA22000EDF6E62
:100CC8001DD020EE15F06050D9266150DA22DF5091
:100CD8004C6E4C50010D0A0EF326000EF422F35010
:100CE8006024D96EF4506120DA6E4DC0DFFF20EE2B
:100CF80015F06050D9266150DA22DF2A26A61200A4
:100D0800AB98AB884C6E1E0E486E4C50000E4A6E67
:100D1800000E496E000E9FEC0EF012000101010159
:100D28008EC193F101010101946B010120EE34F0B1
:100D380001018C51D92601018D51DA22DF500101C0
:100D48000101956F0101010195510D0DF35001014C
:100D580001018C2501010101966FF4500101010187
:100D68008D210101976F96C1D9FF97C1DAFFDF5036
:100D7800D8B402D0FF0E1200010120EE01F00101EB
:100D88009651D92601019751DA2201018EC1DFFF60
:100D9800010120EE02F001019651D9260101975177
:100DA800DA2201018FC1DFFF030E0101010196253F
:100DB80001010101826F000E01010101972101016A
:100DC800836F0101010191C185F10101010190C108
:100DD80084F193C186F194C187F100EC0CF0010114
:100DE80020EE34F001018C51D92601018D51DA220F
:100DF800010110EE34F001018C51E12601018D5101
:100E0800E222E7500101926F01019229030BDF6E84
:100E180096C1D9FF97C1DAFF010EDF6E010E1200ED
:100E280000010001C2C0C7F000010001C86B000149
:100E380020EE34F00001C051D9260001C151DA2258
:100E4800DF5000010001C96F00010001C9510D0DFB
:100E5800F35000010001C02500010001CA6FF450E1
:100E680000010001C1210001CB6FCAC0D9FFCBC06E
:100E7800DAFFDF50D8B402D0FF0E1200000120EED6
:100E880001F00001CA51D9260001CB51DA22000134
:100E9800C2C0DFFF000120EE02F00001CA51D926CE
:100EA8000001CB51DA220001C3C0DFFF030E0001AD
:100EB8000001CA2500010001B66F000E0001000103
:100EC800CB210001B76F00010001C5C0B9F00001D6
:100ED8000001C4C0B8F0C7C0BAF0C8C0BBF02FEC5E
:100EE8000CF0000120EE34F00001C051D9260001B9
:100EF800C151DA22000110EE34F00001C051E126A0
:100F08000001C151E222E7500001C66F0001C62965
:100F1800030BDF6ECAC0D9FFCBC0DAFF010EDF6E4C
:100F2800010E1200E8CF82F1000120EE0CF0000162
:100F3800E851D9260001E951DA22DF50030AD8B472
:100F480002D0000E1200000120EE0CF00001E85162
:100F5800D9260001E951DA22030EDF6212000001EE
:100F680020EE21F00001E851D9260001E951DA22EA
:100F7800010EDF6E000120EE20F00001E851D926B5
:100F88000001E951DA22000EDF6E000120EE22F0A6
:100F98000001E851D9260001E951DA22000110EEDA
:100FA8001BF00001E851E1260001E951E222E75077
:100FB8000109DF6E000120EE0AF00001E851D92690
:100FC8000001E951DA22010182C1DFFF000120EEB0
:100FD8000CF00001E851D9260001E951DA220C0E83
:100FE800DF6E000120EE1EF00001E851D926000155
:100FF800E951DA22000EDE6E000EDD6EC580C5B046
:10100800FED7010E1200010101019E51280A9F110D
:10101800D8A438D08A828A9201010101A3C183F140
:1010280001010101A2C182F101010101A051F9EC04
:1010380003F00009D8A410D09EC198F10101010164
:10104800A3C19AF101010101A2C199F101010101B4
:10105800A051DCEC0DF012000101A46F270E010174
:101068000101986F0101A45101010101A3C19AF185
:1010780001010101A2C199F101010101A051DCECBA
:101088000DF01200010101019E51270A9F11D8A4F9
:101098001200AA0EA2C1D9FFA3C1DAFFDF6207D0EE
:1010A800000E01010101A16F050E0101A06F0101F0
:1010B8000101A05196EC07F00009D8A412009EC1C6
:1010C80098F101010101A3C19AF101010101A2C135
:1010D80099F101010101A051DCEC0DF012003EC0B4
:1010E80043F0446A20EE34F03C50D9263D50DA22D1
:1010F800DF50456E45500D0DF3503C24466EF450BC
:101108003D20476E46C0D9FF47C0DAFFDF50D8B44C
:1011180002D0FF0E120020EE01F04650D9264750AB
:10112800DA223EC0DFFF20EE02F04650D9264750B3
:10113800DA223FC0DFFF030E4624326E000E47203E
:10114800336E41C035F040C034F043C036F044C07F
:1011580037F04AEC0DF020EE34F03C50D9263D50E3
:10116800DA2210EE34F03C50E1263D50E222E750FE
:10117800426E4228030BDF6E46C0D9FF47C0DAFF34
:10118800010EDF6E010E120020EE14F06050D92619
:101198006150DA22010182C1DFFF000E0101010165
:1011A8008A6F000E0101896F1ED00101010189516A
:1011B800010101018425D96E010101018A51010152
:1011C80001018521DA6E0101010189516024E16E76
:1011D800010101018A516120E26EDFCFE7FF0101C1
:1011E8000101894B8A2B010E0101010182250101B0
:1011F800866F000E0101010183210101876F010142
:1012080001018A51800A0101886F8651010101019B
:10121800895D01018751800A01018859D8B01200FF
:10122800C4D7E8CF87F1000EAC6E000EAB6E01019B
:10123800010187B1AC880101010187A302D0AC8C00
:10124800AB8C0101010187B5AC8E0101010187A7B3
:1012580002D0AB8801D0AB8A0101010187B9AC8407
:101268009E980101010187BBAB860101010187AD91
:1012780002D09D8A01D09D9A9E9A0101010187AFF3
:1012880002D09D8801D09D9882C1AFFF010183C122
:1012980084F184C185F10101866B01018551B06E2D
:1012A800AC8AAB8E949C948EACA81200ACBE120093
:1012B800948C12000101010185518411D8B43AD0EF
:1012C8000101866F010E01010101876F010186513D
:1012D80009D0010101010101D89084378537010146
:1012E8000101872B0101010185AFF3D7010101013C
:1012F800845101010101825D010101018551010152
:1013080001018359D8A00CD00101010184510101C8
:101318000101825F01010101855101010101835B26
:10132800010101010101D8908533843301010101D4
:10133800872FDCD782C182F183C183F11200000EAE
:1013480000010001B76F000E0001B66F02EC0FF04C
:101358000001000E00010001CF6F0001D60E000150
:101368000001CE6F0001000E00010001D16F0001E5
:10137800D80E00010001D06F020E29EC0DF000011B
:101388000001D46F0001D56B0001D4BFD50700015F
:101398000001D451020AD511D8A412000001D36F5C
:1013A8000A0E00010001CC6F0001D3510001000EAC
:1013B80000010001CE6F0001D80E00010001CD6FC1
:1013C800020E12EC0EF01200E9CFDCF0EACFDDF0ED
:1013D800E1CFDEF0E2CFDFF0D9CFE0F0DACFE1F015
:1013E800F3CFE2F0F4CFE3F0F6CFE4F0F7CFE5F097
:1013F800F8CFE6F0F5CFE7F09EA603D09E9695ECE1
:101408000BF0F2A403D0F294A3EC09F0CBEC0BF0B0
:10141800E7C0F5FFE6C0F8FFE5C0F7FFE4C0F6FF58
:10142800E3C0F4FFE2C0F3FFE1C0DAFFE0C0D9FF98
:10143800DFC0E2FFDEC0E1FFDDC0EAFFDCC0E9FF9C
:10144800DBC0FBFFDAC0FAFF11000101000183C114
:10145800E9F00101000182C1E8F0000120EE0AF084
:101468000001E851D9260001E951DA22000EDF6EA9
:10147800000120EE0BF00001E851D9260001E951E6
:10148800DA22000EDF6E000120EE0CF00001E851B8
:10149800D9260001E951DA22030EDF6E000120EEA1
:1014A8000EF00001E851D9260001E951DA22000EB8
:1014B800DF6E000120EE1AF00001E851D926000184
:1014C800E951DA22000EDF6E120020EE14F06050AF
:1014D800D9266150DA220A0EDF620AD09D9820EEE2
:1014E80014F06050D9266150DA22000EDF6E120027
:1014F80020EE14F06050D9266150DA22DF50336EA6
:1015080020EE16F06050D9266150DA22DF50335CA5
:10151800D8B0120020EE14F06050D9266150DA22BB
:10152800DF50336E3350010DF3506024D96EF45000
:101538006120DA6EDF50CBEC0EF020EE14F0605034
:10154800D9266150DA22DF2A1200A4EC0CF001013E
:101558000101875101018611D8B412000101886F79
:10156800010E256E010188510001000E01010101E3
:10157800836F0001800E01010101826FF7EC0DF00D
:101588000009D8B407D00101886F000E256E01014B
:10159800885112000101010E01010101836F01014F
:1015A8004C0E01010101826FF7EC0DF00009D8B46F
:1015B80007D00101886F000E256E010188511200C5
:1015C8000A0EC0EC0EF0D0D7010120EE34F0010174
:1015D8008251D92601018351DA22000EDF6E010102
:1015E80020EE35F001018251D92601018351DA221A
:1015F800000EDF6E0101846F000E01010101856F8D
:1016080001018451030E01010101856501D0120019
:101618000101010185510D0DF350010101018225E0
:10162800D96EF450010101018321DA6E000EDF6EDC
:1016380001010101852B030E010101018565E8D730
:1016480012009CC1D9FF9DC1DAFFDE2A000EDD22FF
:101658009CC1D9FF9DC1DAFF0101DECF82F10101F2
:10166800DDCF83F1000E01010101856F0A0E010132
:10167800846F5EEC09F0010101018251090A010140
:101688008311D8A412000101A46F140E01010101F5
:10169800986F0101A451010101019DC19AF1010155
:1016A80001019CC199F1020EC1EC0DF0010101018B
:1016B800A56F12000101866F000E256E010186518B
:1016C8000101010E01010101836F01014C0E0101AD
:1016D8000101826FE8EC0AF00001000E010101012E
:1016E800836F0001800E01010101826FE8EC0AF0AE
:1016F8000101010E01010101836F0101160E0101B3
:101708000101826FE8EC0AF00201020E01010101F9
:10171800836F0201000E01010101826FE8EC0AF0FB
:101728001200000120EE21F00001E851D926000145
:10173800E951DA22010EDF620FD0000120EE20F01D
:101748000001E851D9260001E951DA22DF50D8A476
:1017580003D01BEC03F01200000120EE20F0000182
:10176800E851D9260001E951DA22010EDF621200A0
:10177800000120EE21F00001E851D9260001E951CD
:10178800DA22DF50D8A412000CEC02F01200256611
:1017980001D0120081EC0CF000010001B9510001E8
:1017A800B811D8A412000BEC0FF000010001B751DA
:1017B8000001B611D8B412000001000E00010001AA
:1017C800B76F0001800E00010001B66F2DEC0EF01E
:1017D8000009D8A412000101010E00010001B76F31
:1017E80001014C0E00010001B66F2DEC0EF000094E
:1017F800D8B418EC0FF012000101010185C18BF17A
:101808000101010184C18AF10101010183C189F14A
:101818000101010182C188F112D08AC1D9FF8BC1AF
:10182800DAFF88C1E1FF89C1E2FFDFCFE7FF0101ED
:1018380001018A4B8B2B01010101884B892B010186
:1018480001018607D8A0870701018629D8B487290E
:10185800D8B41200E2D700010001B9C0BFF00001FE
:101868000001B8C0BEF000010001B7C0BDF0000122
:101878000001B6C0BCF012D0BEC0D9FFBFC0DAFFAD
:10188800BCC0E1FFBDC0E2FFDFCFE7FF0001000100
:10189800BE4BBF2B00010001BC4BBD2B000100015A
:1018A800BA07D8A0BB070001BA29D8B4BB29D8B455
:1018B8001200E2D7F2AC08D0000E01010101856FD9
:1018C800000E0101846F1200E7EC0EF00101010126
:1018D800835101018211D8B408D0000E0101010121
:1018E800856F000E0101846F1200000E01010101D5
:1018F800856F010E0101846F1200F2AC08D0000E52
:1019080000010001B96F000E0001B86F12000BEC66
:101918000FF000010001B7510001B611D8B408D08A
:10192800000E00010001B96F000E0001B86F12002F
:10193800000E00010001B96F010E0001B86F12001E
:101948005EEC0CF001010101855101018411D8A45C
:1019580011D0E7EC0EF00101010183510101821160
:10196800D8A408D0000E01010101876F010E010102
:10197800866F1200000E01010101876F000E010140
:10198800866F1200E8CF82F1000120EE1BF0000103
:10199800E851D9260001E951DA22010182C1DFFFAD
:1019A800080EC66EC68A770EC86E000120EE1CF0BF
:1019B8000001E851D9260001E951DA22010EDE6E54
:1019C800000EDD6E1200E8CF9EF10101010E01014B
:1019D80001018D6F01014C0E010101018C6F9EC147
:1019E8008EF1010101019BC190F1010101019AC130
:1019F8008FF1010101019DC192F1010101019CC119
:101A080091F1CBEC04F01200E8CF9EF10001000E3A
:101A1800010101018D6F0001800E010101018C6F30
:101A28009EC18EF1010101019BC190F101010101EB
:101A38009AC18FF1010101019DC192F101010101DA
:101A48009CC191F1CBEC04F01200E8CFD2F0020176
:101A5800020E00010001C16F0201000E0001000129
:101A6800C06FD2C0C2F000010001CFC0C4F00001B5
:101A78000001CEC0C3F000010001D1C0C6F00001D2
:101A88000001D0C0C5F066EC05F0120035C03BF08F
:101A980034C03AF033C039F032C038F00ED03AC012
:101AA800D9FF3BC0DAFF38C0E1FF39C0E2FFDFCF22
:101AB800E7FF3A4A3B2A384A392A3606D8A0370679
:101AC8003628D8B43728D8B41200E9D70101010163
:101AD8008D511E0A8E11D8B41200010101018D51D9
:101AE800200A8E11D8A412008FC182F190C183F10F
:101AF8000101010192C185F10101010191C184F146
:101B0800C8EC08F09D88120002EE00F0360EEE6A6E
:101B1800E806FDE101EE00F0820EEE6AE806FDE15E
:101B280000EE80F0360EEE6AE806FDE100EE01F008
:101B3800310EEE6AE806FDE1000EF86E000162EF74
:101B480000F0E8CF82F10101010182517E0BCD6ED8
:101B58000101010182AD02D0CD8E01D0CD9E000ED3
:101B6800CF6E000ECE6E9E900101010182AF02D0B1
:101B78009D8001D09D90CD801200E8CF9BF102019D
:101B8800020E010101018D6F0201000E0101010128
:101B98008C6F9BC18EF198C18FF1010101019AC12F
:101BA80091F10101010199C190F192EC06F0120046
:101BB800E8CF9BF10001000E010101018D6F0001CA
:101BC800800E010101018C6F9BC18EF198C18FF1CC
:101BD800010101019AC191F10101010199C190F13D
:101BE80092EC06F01200010120EE35F0010182515D
:101BF800D92601018351DA22DF500101846F0101E6
:101C080084510D0DF350010101018225D96EF45064
:101C1800010101018321DA6EDF501200E8CFCFF015
:101C28000001000E00010001C16F0001800E0001DB
:101C38000001C06FCFC0C2F0CCC0C3F000010001EA
:101C4800CEC0C5F000010001CDC0C4F014EC07F00F
:101C58001200000120EE35F00001B651D92600012E
:101C6800B751DA22DF500001B86F0001B8510D0DED
:101C7800F35000010001B625D96EF45000010001AF
:101C8800B721DA6EDF501200F9EC0EF032C04DF0D9
:101C980033C04EF04C6E0B0E486E4C50000E4A6E20
:101CA800000E496E000E9FEC0EF0000E336E000E13
:101CB800326EF0EC0EF01200010183C161F00101F7
:101CC80082C160F020EE14F06050D9266150DA220B
:101CD800000EDF6E20EE15F06050D9266150DA2232
:101CE800000EDF6E1200E8CF82F10101010182517E
:101CF8007F0BD56E000ED76E000ED66EF2940101E2
:101D0800010182AF02D0F28A01D0F29AD58E120078
:101D1800E8CF4BF00001000E3D6E0001800E3C6ED6
:101D28004BC03EF048C03FF04AC041F049C040F0C7
:101D380073EC08F01200E8CF4BF00101010E3D6E84
:101D480001014C0E3C6E4BC03EF048C03FF0416A6A
:101D580049C040F073EC08F01200F20E2616ABAC46
:101D680003D02690ABB02680ABB42684ABB22686CF
:101D7800AECF32F032501200E8CF82F1FA0E00F006
:101D8800E82EFDD701010101822FF8D71200E8CF14
:101D980032F0ACAC03D0AC9026B2AC8032C0ADFF10
:101DA80012000101010189C18BF10101010188C102
:101DB8008AF1120082C1D9FF83C1DAFF000EDE6EFC
:101DC800000EDD6E1200000EF2AE010E01010101DF
:101DD800826F0101836B120032C034F033C035F0DA
:101DE80035C0CFFF34C0CEFF1200CECF34F0CFCFF6
:101DF80035F034C032F035C033F01200B6C0B8F058
:101E0800B7C0B9F0B9C0D7FFB8C0D6FF1200000EEE
:101E1800F2AE010E00010001B66F0001B76B1200AF
:0E1E2800D08EF28EF28C1200D38E03001200C8
:067FF80080F4C5FFFFF15B
:00000001FF
