:040000005EEF00F0BF
:0C000800FACFDAF0FBCFDBF0BAEF09F022
:10001800D8CF24F0E8CF25F0E0CF26F0FACF27F0AC
:10002800FBCF28F0E9CF29F0EACF2AF0E1CF2BF077
:10003800E2CF2CF0D9CF2DF0DACF2EF0F3CF2FF07E
:10004800F4CF30F0F6CF31F0F7CF32F0F8CF33F00D
:10005800F5CF34F09EA003D09E90F3EC0DF09EAA4D
:1000680003D09E9A87EC01F09EB837EC0EF034C0AE
:10007800F5FF33C0F8FF32C0F7FF31C0F6FF30C0DC
:10008800F4FF2FC0F3FF2EC0DAFF2DC0D9FF2CC01C
:10009800E2FF2BC0E1FF2AC0EAFF29C0E9FF28C020
:1000A800FBFF27C0FAFF26C0E0FF25C0E8FF24C0F9
:1000B800D8FF10004EEF0DF00101A36F000E0101F3
:1000C8000101B06F0101A3510101A36F000E0101ED
:1000D8000101B16F0101A3510101A36F000E0101DC
:1000E8000101B26F0101A35101010101B0690101D0
:1000F8000101B16901010101B269820ED36E9B8CC5
:100108000101010E01010101816F0101BA0E010116
:100118000101806F0BEC0EF00101010E01010101DC
:10012800816F0101D00E01010101806F86EC0AF098
:100138000101010E01010101816F0101B40E0101EC
:100148000101806F99EC0EF042EC0BF0000E936EFB
:10015800000E8A6ED30E22EC0EF00101A36F840EFE
:1001680001010101806F0101A3510101A46F0B0E70
:1001780001010101816F0101A451D30E44EC0AF081
:10018800870E6FEC0EF0F50E6BEC0DF09F909F9ABA
:100198009F989F869F8C0101A36F9E0E010101010C
:1001A800B36F0101A35101010101B351AAEC0CF095
:1001B8009D86000E01010101816F9B0E0101806F78
:1001C8007C0E71EC09F0B896AB8EAB88000E546EBD
:1001D800000E536ED7EC0EF0C6EC0AF00101010ECA
:1001E80001010101996F0101B90E01010101986F27
:1001F8000101010E010101019B6F0101A50E010121
:1002080001019A6F0A0EECEC0CF001010101B86FC4
:1002180001010101B8BF5CD052D00101010E0101FA
:1002280001019B6F0101B60E010101019A6F0101E5
:100238000101B9C19CF1010101019D6B010101019D
:10024800B851010101019E6F01019F6B01019EBF21
:100258009F070101010E01010101A16F0101A50E16
:1002680001010101A06FC0EC08F032D00101010EBC
:10027800010101019B6F0101B60E010101019A6F95
:1002880001010101B9C19CF1010101019D6B01014D
:100298000101B851010101019E6F01019F6B01012C
:1002A8009EBF9F070101010E01010101A16F01011C
:1002B800A50E01010101A06FC0EC08F009D00101F1
:1002C8000101B951270AD8B4D1D70F0AD8B4A5D794
:1002D8000101010E01010101996F0101B90E01012E
:1002E8000101986F0101010E010101019B6F0101DC
:1002F800A50E010101019A6F0A0ECBEC0CF0010169
:100308000101B86F69D79EAA03D17FEC0EF0236E66
:10031800626615D02350AA0AD8A411D020EE0AF09C
:100328006750D9266850DA2223C0DFFF1B6E010E02
:10033800626E1B501B6E010E646E1B501DD0645004
:10034800D8B422D02350030AD8A41ED020EE15F02A
:100358006750D9266850DA22DF501B6E1B50010DFA
:100368000A0EF326000EF422F3506724D96EF450D7
:100378006820DA6E23C0DFFF20EE15F06750D9261B
:100388006850DA22DF2AC4D05D66C2D0FF0E1B6E29
:10039800FF0E1C6E20EE0BF06750D9266850DA224B
:1003A800DF501D6E1E6A1B501D261C501E2220EE9B
:1003B80015F06750D9266850DA22DF501F6E1F509B
:1003C8001D181E10D8A4A4D020EE15F06750D92609
:1003D8006850DA22DF501B6E1B50010D0A0EF326FF
:1003E800000EF422F3506724D96EF4506820DA6EB8
:1003F80023C0DFFF1B6E010E5D6E1B50000E226EC8
:10040800000E216E1B6E000E206E1B5010D00A0EBF
:1004180021241B6E000E22201C6E1B506724D96EEF
:100428001C506820DA6EDF50201A214A222AFF0E5B
:100438001B6EFF0E1C6E20EE0BF06750D92668501D
:10044800DA22DF501D6E1E6A1B501D261C501E220C
:100458002250800A1F6E1D50215C1E50800A1F58B2
:10046800D8A0D5D720EE15F06750D9266850DA22E3
:10047800DF501B6E1B50010D0A0EF326000EF422EE
:10048800F3506724D96EF4506820DA6EDF502018D4
:10049800D8B409D020EE15F06750D9266850DA2272
:1004A800000EDF6E1DD06450D8B41AD020EE15F0BF
:1004B8006750D9266850DA22DF2A1B6E280E176E7D
:1004C8001B500A0E6724186E000E6820196E20EE65
:1004D80015F06750D9266850DA22DF504AEC0EF042
:1004E8001B6E000E626E1B501B6E000E5D6E1B5065
:1004F8001B6E000E636E1B501B6E000E646E1B504D
:1005080020EE15F06750D9266850DA22000EDF6E0B
:100518005CA61200AB98AB881B6E1E0E176E1B50A4
:10052800000E196E000E186E000E5DEC0EF0120033
:10053800F7D0000120EE1AF00001E851D926000199
:10054800E951DA22DF500001B66F0001B651010D02
:100558000F0EF326000EF422F35000010001E825E7
:10056800D96EF45000010001E921DA6EDF50C96E3E
:10057800000120EE0CF00001E851D9260001E951F4
:10058800DA22060EDF6E1200C5BC39D0C58A00011A
:1005980020EE1CF00001E851D9260001E951DA22C9
:1005A800DECFB6F0DDCFB7F00F0E0001B627000E94
:1005B800B7230001B65100010001E825D96E0001FA
:1005C800B75100010001E921DA6EDF50C96E000160
:1005D80020EE1CF00001E851D9260001E951DA2289
:1005E800DE2A000EDD22000120EE0CF00001E851A9
:1005F800D9260001E951DA22070EDF6E1200000148
:1006080020EE0CF00001E851D9260001E951DA2268
:10061800010EDF6E1200C5BC6BD0C58A000120EE4A
:100628001CF00001E851D9260001E951DA22DECF99
:10063800B6F0DDCFB7F0000120EE19F00001E85167
:10064800D9260001E951DA22DF500001B86FB96BF1
:100658000001B7510001B91904E10001B6510001C8
:10066800B819D8A40DD0000120EE0CF00001E85113
:10067800D9260001E951DA220A0EDF6EC58412007C
:10068800000120EE1CF00001E851D9260001E951D3
:10069800DA22DECFB6F0DDCFB7F00F0E0001B627B5
:1006A800000EB7230001B65100010001E825D96EFC
:1006B8000001B75100010001E921DA6EDF50C96E6F
:1006C800000120EE1CF00001E851D9260001E95193
:1006D800DA22DE2A000EDD22000120EE0CF00001F5
:1006E800E851D9260001E951DA22070EDF6E12001F
:1006F800000120EE0CF00001E851D9260001E95173
:10070800DA22090EDF6E1200000120EE0CF0000163
:10071800E851D9260001E951DA22030EDF6E1200F2
:10072800000120EE0CF00001E851D9260001E95142
:10073800DA22DF50050AD8B4FCD6030AD8B424D785
:10074800010AD8B468D70D0AD8A41200DDD7C0D0E2
:10075800000120EE22F00001E851D9260001E951FC
:10076800DA22DF50C96E000120EE0CF00001E851DA
:10077800D9260001E951DA220D0EDF6E1200C5BC40
:100788000DD0C586000120EE0CF00001E851D926F5
:100798000001E951DA220F0EDF6E1200000120EE8F
:1007A8000CF00001E851D9260001E951DA220E0EB9
:1007B800DF6E1200000120EE1EF00001E851D9267C
:1007C8000001E951DA22DECFB6F0DDCFB7F0000143
:1007D800B65100010001E825D96E0001B7510001AA
:1007E8000001E921DA6EC9CFDFFF000120EE1EF01B
:1007F8000001E851D9260001E951DA22DE2A000E6B
:10080800DD22000120EE1EF00001E851D92600018A
:10081800E951DA22DECFB6F0DDCFB7F0000120EEE5
:100828000AF00001E851D9260001E951DA22DF5027
:100838000001B86FB96B0001B7510001B91904E1A3
:100848000001B6510001B819D8A40ED0C58AC588D0
:10085800000120EE0CF00001E851D9260001E95111
:10086800DA22110EDF6E1200C59AC588000120EE4B
:100878000CF00001E851D9260001E951DA22100EE6
:10088800DF6E1200C586000120EE0CF00001E85171
:10089800D9260001E951DA220F0EDF6E1200C58455
:1008A800000120EE0CF00001E851D9260001E951C1
:1008B800DA22120EDF6E1200000120EE0CF00001A9
:1008C800E851D9260001E951DA22030EDF6E120041
:1008D800000120EE0CF00001E851D9260001E95191
:1008E800DA22DF500C0AD8B433D7010AD8B447D774
:1008F800020AD8B45FD71F0AD8B4C4D7010AD8B43B
:10090800CED7030AD8A41200D7D7E8CF88F10001C0
:1009180020EE0CF00001E851D9260001E951DA2255
:10092800DF50030AD8B402D0000E1200000120EEF6
:100938000CF00001E851D9260001E951DA22030E32
:10094800DF621200000120EE1CF00001E851D926F8
:100958000001E951DA22010EDE6E000EDD6E0001A3
:1009680020EE1BF00001E851D9260001E951DA22F6
:10097800000110EE0FF00001E851E1260001E951F5
:10098800E222DFCFE7FF000120EE19F00001E85175
:10099800D9260001E951DA22010101018829DF6E17
:1009A800000E010101018A6F010E0101896F3DD01E
:1009B800FF0E0101826FFF0E836F010189C184F16F
:1009C80001018AC185F101018251010184270101D8
:1009D8008351010185230101845101010101802511
:1009E800D96E01018551010101018121DA6E0F0ED5
:1009F8000101010189250101866F000E0101010134
:100A08008A210101876F0101865100010001E82553
:100A1800E16E0101875100010001E921E26EDFCF9B
:100A2800E7FF01010101894B8A2B0101010188516E
:100A38000101826F836B010E01018227000E83235F
:100A4800010101018A51800A0101846F825101016B
:100A58000101895D01018351800A01018459D8A0EF
:100A6800A7D7000120EE20F00001E851D9260001A7
:100A7800E951DA22010EDF6E000120EE21F00001BB
:100A8800E851D9260001E951DA22000EDF6E000193
:100A980020EE0CF00001E851D9260001E951DA22D4
:100AA800050EDF6EC580C5B0FED7010E1200000E20
:100AB800526E000E516ECFEC0EF0000100010001E5
:100AC8000001B735B733B63300010001000100015A
:100AD800B735B733B6330001B6C051F00001B7C01F
:100AE80052F052505A1802E151505918D8B4120015
:100AF80054505310D8A446D03F0E5524D96E000E3A
:100B08005620DA6E51C0DFFF554A562A5650800AE1
:100B1800800F060ED8B4555CD8A07ED0000E000118
:100B28000001B96F000E0001B86F00010001B95152
:100B3800800A800F050ED8B4B85DD8B01BD03F0E20
:100B480000010001B825D96E000E00010001B9218D
:100B5800DA6E490E00010001B825E16E000E0001B1
:100B68000001B921E26EDFCFE7FF00010001B84BB9
:100B7800B92BDBD7000E566E000E556E000E546E64
:100B8800010E49D053045410D8A446D0440E55241D
:100B9800D96E000E5620DA6E51C0DFFF554A562A2C
:100BA8005650800A800F060ED8B4555CD8A034D0B1
:100BB800000E00010001BB6F000E0001BA6F0001BA
:100BC8000001BB51800A800F050ED8B4BA5DD8B0B9
:100BD8001BD03F0E00010001BA25D96E000E00019E
:100BE8000001BB21DA6E490E00010001BA25E16E51
:100BF800000E00010001BB21E26EDFCFE7FF00011C
:100C08000001BA4BBB2BDBD7000E566E000E556E9B
:100C1800000E546E000E536E51C059F052C05AF077
:100C28001200010120EE35F001018A51D926010197
:100C38008B51DA22DF5001010101936F010101019B
:100C480093510D0DF350010101018A2501010101A4
:100C5800966FF450010101018B210101976F010E7C
:100C680096C1D9FF97C1DAFFDF6274D0010120EE87
:100C780001F001019651D92601019751DA22DF507E
:100C8800010101018C5DD8B002D0FD0E12000101F6
:100C980020EE01F001019651D92601019751DA227F
:100CA800DF500101916F0101915101010101946F20
:100CB8000101956B0101010190C181F1010101015F
:100CC8008FC180F1030E0101010196250101916F89
:100CD800000E0101010197210101926F91C182F17A
:100CE80092C183F194C184F195C185F1E4EC0BF0D4
:100CF800010120EE35F001018A51D92601018B51FD
:100D0800DA22010110EE35F001018A51E1260101D4
:100D18008B51E222E7500101916F01019129030BE8
:100D2800DF6E010120EE02F001019651D926010182
:100D38009751DA228DC1E1FF8EC1E2FFDFCFE7FFD5
:100D480096C1D9FF97C1DAFF000EDF6E01010101DC
:100D580094511200FC0E1200000120EE35F0000143
:100D6800C051D9260001C151DA22DF50000100012B
:100D7800C96F00010001C9510D0DF35000010001B8
:100D8800C02500010001CC6FF45000010001C12111
:100D98000001CD6F010ECCC0D9FFCDC0DAFFDF62F4
:100DA80074D0000120EE01F00001CC51D9260001D9
:100DB800CD51DA22DF5000010001C25DD8B002D067
:100DC800FD0E1200000120EE01F00001CC51D926E1
:100DD8000001CD51DA22DF500001C76F0001C75171
:100DE80000010001CA6F0001CB6B00010001C6C001
:100DF800B7F000010001C5C0B6F0030E0001000104
:100E0800CC250001C76F000E00010001CD210001B3
:100E1800C86FC7C0B8F0C8C0B9F0CAC0BAF0CBC074
:100E2800BBF013EC0CF0000120EE35F00001C051CE
:100E3800D9260001C151DA22000110EE35F0000177
:100E4800C051E1260001C151E222E7500001C76FFD
:100E58000001C729030BDF6E000120EE02F000013C
:100E6800CC51D9260001CD51DA22C3C0E1FFC4C05C
:100E7800E2FFDFCFE7FFCCC0D9FFCDC0DAFF000E1D
:100E8800DF6E00010001CA511200FC0E12000101C0
:100E980001018CC191F101010101926B010120EE68
:100EA80034F001018A51D92601018B51DA22DF5031
:100EB80001010101936F0101010193510D0DF350DF
:100EC800010101018A2501010101946FF45001011A
:100ED80001018B210101956F94C1D9FF95C1DAFFFA
:100EE800DF50D8B402D0FF0E1200010120EE01F04D
:100EF80001019451D92601019551DA2201018CC1D1
:100F0800DFFF010120EE02F001019451D926010111
:100F18009551DA2201018DC1DFFF030E01010101A4
:100F2800942501010101806F000E01010101952145
:100F38000101816F010101018FC183F101010101EB
:100F48008EC182F191C184F192C185F1E4EC0BF07C
:100F5800010120EE34F001018A51D92601018B519B
:100F6800DA22010110EE34F001018A51E126010173
:100F78008B51E222E7500101906F01019029030B88
:100F8800DF6E94C1D9FF95C1DAFF010EDF6E010E45
:100F9800120000010001C2C0C7F000010001C86BC7
:100FA800000120EE34F00001C051D9260001C151E2
:100FB800DA22DF5000010001C96F00010001C951A8
:100FC8000D0DF35000010001C02500010001CA6F9A
:100FD800F45000010001C1210001CB6FCAC0D9FF44
:100FE800CBC0DAFFDF50D8B402D0FF0E12000001E8
:100FF80020EE01F00001CA51D9260001CB51DA22B6
:101008000001C2C0DFFF000120EE02F00001CA515A
:10101800D9260001CB51DA220001C3C0DFFF030E3D
:1010280000010001CA2500010001B66F000E000191
:101038000001CB210001B76F00010001C5C0B9F064
:1010480000010001C4C0B8F0C7C0BAF0C8C0BBF006
:1010580013EC0CF0000120EE34F00001C051D92649
:101068000001C151DA22000110EE34F00001C05134
:10107800E1260001C151E222E7500001C66F0001DC
:10108800C629030BDF6ECAC0D9FFCBC0DAFF010E39
:10109800DF6E010E1200E8CF80F1000120EE0CF0A7
:1010A8000001E851D9260001E951DA22DF50030A8C
:1010B800D8B402D0000E1200000120EE0CF000019E
:1010C800E851D9260001E951DA22030EDF62120045
:1010D800000120EE21F00001E851D9260001E95174
:1010E800DA22010EDF6E000120EE20F00001E85147
:1010F800D9260001E951DA22000EDF6E000120EE48
:1011080022F00001E851D9260001E951DA22000154
:1011180010EE1BF00001E851E1260001E951E2223E
:10112800E7500109DF6E000120EE0AF00001E851E6
:10113800D9260001E951DA22010180C1DFFF00014F
:1011480020EE0CF00001E851D9260001E951DA221D
:101158000C0EDF6E000120EE1EF00001E851D926CA
:101168000001E951DA22000EDE6E000EDD6EC58048
:10117800C5B0FED7010E1200010101019C51280AD9
:101188009D11D8A436D001010101A1C181F101014D
:101198000101A0C180F1010101019E5189EC04F017
:1011A8000009D8A410D09CC196F101010101A1C188
:1011B80098F101010101A0C197F1010101019E51BE
:1011C80087EC0DF012000101A26F270E0101010149
:1011D800966F0101A25101010101A1C198F101011C
:1011E8000101A0C197F1010101019E5187EC0DF0A9
:1011F8001200010101019C51270A9D11D8A4120077
:10120800010101019E514FEC08F00009D8A4120019
:101218009CC196F101010101A1C198F101010101EF
:10122800A0C197F1010101019E5187EC0DF0120058
:101238000DC012F0136A20EE34F00B50D9260C5072
:10124800DA22DF50146E14500D0DF3500B24156E76
:10125800F4500C20166E15C0D9FF16C0DAFFDF5007
:10126800D8B402D0FF0E120020EE01F01550D92696
:101278001650DA220DC0DFFF20EE02F01550D926F5
:101288001650DA220EC0DFFF030E1524016E000E81
:101298001620026E10C004F00FC003F012C005F053
:1012A80013C006F02EEC0DF020EE34F00B50D926CA
:1012B8000C50DA2210EE34F00B50E1260C50E222EA
:1012C800E750116E1128030BDF6E15C0D9FF16C049
:1012D800DAFF010EDF6E010E1200E8CF85F1000E75
:1012E800AC6E000EAB6E0101010185B1AC88010145
:1012F800010185A302D0AC8CAB8C0101010185B53D
:10130800AC8E0101010185A702D0AB8801D0AB8A60
:101318000101010185B9AC849E980101010185BBD9
:10132800AB860101010185AD02D09D8A01D09D9A4D
:101338009E9A0101010185AF02D09D8801D09D9838
:1013480080C1AFFF010181C182F182C183F1010136
:10135800846B01018351B06EAC8AAB8E949C948EE1
:10136800ACA81200ACBE1200948C1200E9CFDCF0DD
:10137800EACFDDF0E1CFDEF0E2CFDFF0D9CFE0F069
:10138800DACFE1F0F3CFE2F0F4CFE3F0F6CFE4F018
:10139800F7CFE5F0F8CFE6F0F5CFE7F09E509E9C4A
:1013A8005BEC05F09EA603D09E9679EC0BF0F2A4B8
:1013B80003D0F294FFEC09F0AFEC0BF0E7C0F5FFB7
:1013C800E6C0F8FFE5C0F7FFE4C0F6FFE3C0F4FFAE
:1013D800E2C0F3FFE1C0DAFFE0C0D9FFDFC0E2FFFF
:1013E800DEC0E1FFDDC0EAFFDCC0E9FFDBC0FBFFD8
:1013F800DAC0FAFF1100000E00010001B76F000EFD
:101408000001B66FBDEC0EF00001000E00010001F6
:10141800CF6F0001D60E00010001CE6F0001000E53
:1014280000010001D16F0001D80E00010001D06F4A
:10143800020E0DEC0DF000010001D46F0001D56B18
:101448000001D4BFD50700010001D451020AD5110B
:10145800D8A412000001D36F0A0E00010001CC6F5E
:101468000001D3510001000E00010001CE6F000100
:10147800D80E00010001CD6F020EBDEC0DF0120078
:10148800E8CF84F1000EC26E000EC06E01010101AA
:10149800D89080313C0BC26E80C182F10101823B41
:1014A800F00E8217300E01018217010101018151EE
:1014B8000F0B01018211C16E84C182F10101D89024
:1014C80082370101D8908237380E0101821784C112
:1014D80083F10101833B0F0E8317070E0101831768
:1014E800010101018451800B010183110101821165
:1014F800C06E0101010180AF03D09E9C9D8CF28CCF
:10150800C28012000101000181C1E9F0010100015E
:1015180080C1E8F0000120EE0AF00001E851D92668
:101528000001E951DA22000EDF6E000120EE0BF017
:101538000001E851D9260001E951DA22000EDF6ED8
:10154800000120EE0CF00001E851D9260001E95114
:10155800DA22030EDF6E000120EE0EF00001E851E2
:10156800D9260001E951DA22000EDF6E000120EED3
:101578001AF00001E851D9260001E951DA22000EDB
:10158800DF6E120088EC0CF00101010185510101A8
:101598008411D8B412000101866F010E5B6E01013F
:1015A80086510001000E01010101816F0001800ECA
:1015B80001010101806FA2EC0DF00009D8B407D039
:1015C8000101866F000E5B6E010186511200010158
:1015D800010E01010101816F01014A0E01010101A2
:1015E800806FA2EC0DF00009D8B407D00101866F16
:1015F800000E5B6E0101865112000A0E8EEC0EF091
:10160800D0D7010120EE34F001018051D926010123
:101618008151DA22000EDF6E010120EE35F0010162
:101628008051D92601018151DA22000EDF6E0101B5
:10163800826F000E01010101836F01018251030EC7
:1016480001010101836501D01200010101018351EB
:101658000D0DF350010101018025D96EF4500101EF
:1016680001018121DA6E000EDF6E01010101832B79
:10167800030E010101018365E8D712000101846F9F
:10168800000E5B6E010184510101010E010101018F
:10169800816F01014A0E01010101806F05EC0BF019
:1016A8000001000E01010101816F0001800E01019E
:1016B8000101806F05EC0BF00101010E0101010130
:1016C800816F0101140E01010101806F05EC0BF01F
:1016D8000201020E01010101816F0201000E0101E8
:1016E8000101806F05EC0BF01200000120EE21F0E3
:1016F8000001E851D9260001E951DA22010EDF6222
:101708000FD0000120EE20F00001E851D926000199
:10171800E951DA22DF50D8A403D0ABEC03F0120071
:10172800000120EE20F00001E851D9260001E9511E
:10173800DA22010EDF621200000120EE21F0000122
:10174800E851D9260001E951DA22DF50D8A4120065
:101758009CEC02F012005B6601D0120065EC0CF004
:1017680000010001B9510001B811D8A41200C6EC5B
:101778000EF000010001B7510001B611D8B41200F3
:101788000001000E00010001B76F0001800E00018A
:101798000001B66FD8EC0DF00009D8A412000101C1
:1017A800010E00010001B76F01014A0E000100019E
:1017B800B66FD8EC0DF00009D8B4DBEC0EF01200CF
:1017C8000101010183C189F10101010182C188F18F
:1017D8000101010181C187F10101010180C186F187
:1017E80012D088C1D9FF89C1DAFF86C1E1FF87C15C
:1017F800E2FFDFCFE7FF01010101884B892B0101DF
:101808000101864B872B010101018407D8A08507B8
:1018180001018429D8B48529D8B41200E2D700017F
:101828000001B9C0BFF000010001B8C0BEF000015E
:101838000001B7C0BDF000010001B6C0BCF012D075
:10184800BEC0D9FFBFC0DAFFBCC0E1FFBDC0E2FF28
:10185800DFCFE7FF00010001BE4BBF2B00010001F5
:10186800BC4BBD2B00010001BA07D8A0BB07000183
:10187800BA29D8B4BB29D8B41200E2D7F2AC08D040
:10188800000E01010101836F000E0101826F120039
:10189800A2EC0EF001010101815101018011D8B4BF
:1018A80008D0000E01010101836F000E0101826F53
:1018B8001200000E01010101836F010E0101826F08
:1018C8001200F2AC08D0000E00010001B96F000E42
:1018D8000001B86F1200C6EC0EF000010001B7510C
:1018E8000001B611D8B408D0000E00010001B96F8C
:1018F800000E0001B86F1200000E00010001B96F60
:10190800010E0001B86F120042EC0CF00101010158
:10191800835101018211D8A411D0A2EC0EF001016B
:101928000101815101018011D8A408D0000E0101E4
:101938000101856F010E0101846F1200000E010183
:101948000101856F000E0101846F1200E8CF80F15C
:10195800000120EE1BF00001E851D9260001E951F1
:10196800DA22010180C1DFFF080EC66EC68A770E33
:10197800C86E000120EE1CF00001E851D9260001D4
:10198800E951DA22010EDE6E000EDD6E1200E8CF9C
:101998009CF10101010E010101018B6F01014A0E49
:1019A800010101018A6F9CC18CF10101010199C1FA
:1019B8008EF10101010198C18DF1010101019BC165
:1019C80090F1010101019AC18FF115EC06F01200A6
:1019D800E8CF9CF10001000E010101018B6F0001AD
:1019E800800E010101018A6F9CC18CF10101010186
:1019F80099C18EF10101010198C18DF10101010127
:101A08009BC190F1010101019AC18FF115EC06F01B
:101A18001200E8CFD2F00201020E00010001C16FEE
:101A28000201000E00010001C06FD2C0C2F0000127
:101A38000001CFC0C4F000010001CEC0C3F0000116
:101A48000001D1C0C6F000010001D0C0C5F0B0EC63
:101A580006F0120004C00AF003C009F002C008F042
:101A680001C007F00ED009C0D9FF0AC0DAFF07C0CD
:101A7800E1FF08C0E2FFDFCFE7FF094A0A2A074A69
:101A8800082A0506D8A006060528D8B40628D8B41A
:101A98001200E9D702EE00F0360EEE6AE806FDE124
:101AA80001EE00F0800EEE6AE806FDE100EE80F03F
:101AB800360EEE6AE806FDE100EE35F0320EEE6A0B
:101AC800E806FDE1000EF86E000160EF00F0E8CFD7
:101AD80080F10101010180517E0BCD6E01010101F0
:101AE80080AD02D0CD8E01D0CD9E000ECF6E000EFF
:101AF800CE6E9E900101010180AF02D09D8001D081
:101B08009D90CD801200E8CF99F10001000E0101EF
:101B180001018B6F0001800E010101018A6F99C1DB
:101B28008CF196C18DF10101010198C18FF101017C
:101B3800010197C18EF14BEC07F01200010120EE74
:101B480035F001018051D92601018151DA22DF5097
:101B58000101826F010182510D0DF3500101010154
:101B68008025D96EF450010101018121DA6EDF5020
:101B78001200E8CFCFF00001000E00010001C16F94
:101B88000001800E00010001C06FCFC0C2F0CCC0C0
:101B9800C3F000010001CEC0C5F000010001CDC0B6
:101BA800C4F0CDEC07F01200000120EE35F0000182
:101BB800B651D9260001B751DA22DF500001B86FBB
:101BC8000001B8510D0DF35000010001B625D96E82
:101BD800F45000010001B721DA6EDF501200B4ECB6
:101BE8000EF001C01CF002C01DF01B6E0B0E176E2C
:101BF8001B50000E196E000E186E000E5DEC0EF0F4
:101C0800000E026E000E016EABEC0EF01200010128
:101C180081C168F0010180C167F020EE14F06750BF
:101C2800D9266850DA22000EDF6E20EE15F06750D4
:101C3800D9266850DA22000EDF6E1200E8CF80F154
:101C48000101010180517F0BD56E000ED76E000E89
:101C5800D66EF2940101010180AF02D0F28A01D060
:101C6800F29AD58E120020EE14F06750D9266850EB
:101C7800DA220A0EDF6412009D9820EE14F06750F5
:101C8800D9266850DA22000EDF6E1200E8CF1AF06B
:101C98000001000E0C6E0001800E0B6E1AC00DF0D4
:101CA80017C00EF019C010F018C00FF01CEC09F0A6
:101CB8001200E8CF1AF00101010E0C6E01014A0E64
:101CC8000B6E1AC00DF017C00EF0106A18C00FF096
:101CD8001CEC09F01200E8CF81F1C2CF80F1C30EED
:101CE8000101801701010101D89081313C0B0101EC
:101CF8008011C26E1200F20E5C16ABAC03D05C9081
:101D0800ABB05C80ABB45C84ABB25C86AECF01F0A8
:101D180001501200E8CF80F1FA0E00F0E82EFDD74E
:101D280001010101802FF8D7120080C1D9FF81C1BC
:101D3800DAFF000EDE6E000EDD6E1200000EF2AE4F
:101D4800010E01010101806F0101816B120001C0C8
:101D580003F002C004F004C0CFFF03C0CEFF12009E
:101D6800CECF03F0CFCF04F003C001F004C002F0DF
:101D78001200B6C0B8F0B7C0B9F0B9C0D7FFB8C044
:101D8800D6FF1200000EF2AE010E00010001B66F80
:101D98000001B76B1200C45000010001B76FC350B7
:101DA8000001B66F1200D08EF28EF28C1200D38E24
:041DB8000300120012
:067FF80080F4C5FFFFF15B
:00000001FF
